:020000040000FA
:1000000007EF24F0C69A1200D2EF1FF054EC06F06E
:10001000C8EC11F0FDD7120024EF22F0D9CFE5FF94
:10002000E1CFD9FF00C0E5FF01C0E5FF02C0E5FF59
:1000300003C0E5FF04C0E5FF05C0E5FF06C0E5FF1E
:1000400007C0E5FF08C0E5FF09C0E5FF0AC0E5FFFE
:100050000BC0E5FF0CC0E5FF0DC0E5FF0EC0E5FFDE
:100060000FC0E5FF10C0E5FF11C0E5FF12C0E5FFBE
:1000700013C0E5FF14C0E5FF15C0E5FF16C0E5FF9E
:1000800017C0E5FF18C0E5FF19C0E5FF1AC0E5FF7E
:100090001BC0E5FF1CC0E5FF1DC0E5FF1EC0E5FF5E
:1000A000020EDBCF00F0030EDBCF01F0040EDBCF3E
:1000B00002F0050EDBCF03F0060EDBCF04F0070ED7
:1000C000DBCF05F0080EDBCF06F0090EDBCF07F023
:1000D0000A0EDBCF08F0096A0A6A02C00DF00D5063
:1000E000800A0DE102500A01706F01506F6F0050DD
:1000F0006E6F0A0E016E6E0E006E800E026E03C0F1
:10010000E9FF04C0F3FF055053EC24F00B6E0B50D5
:10011000D8B4C4EF03F00B50250A02E0ABEF03F0B4
:100120000C6A0D6A0E6A0F6A106A0A0E116E126A64
:10013000136A146A200E156E1668176A2B0E186E55
:10014000032A02E3044A052A03C0E9FF04C0F3FFBF
:10015000055053EC24F0196E250A13E11950E56E91
:100160000250E56E0150E56E0050E56E48EC16F069
:10017000040EE126094A0A2A032A02E3044A052A50
:10018000BED71950300A06E1300E156E032A02E37D
:10019000044A052A03C0E9FF04C0F3FF055053ECED
:1001A00024F02D0A06E1010E146E032A02E3044A2C
:1001B000052A03C0E9FF04C0F3FF055053EC24F007
:1001C000200A08E1010E176E200E186E032A02E3C2
:1001D000044A052A03C0E9FF04C0F3FF055053ECAD
:1001E00024F02B0A06E1010E176E032A02E3044AEB
:1001F000052A03C0E9FF04C0F3FF055053EC24F0C7
:10020000196E310E195C2BE33A0E195C28E203C01B
:1002100019F004C01AF005C01BF019C0E9FF1AC09C
:10022000F3FF1B5053EC24F01C6E300E1C5C11E3EA
:100230003A0E1C5C0EE213500A0DF3CF1DF01D5058
:100240001C26D00E1C24136E192A02E31A4A1B2AFC
:10025000E4D719C003F01AC004F01BC005F003C0B6
:10026000E9FF04C0F3FF055053EC24F02E0A2DE102
:10027000032A02E3044A052A166A03C019F004C0DF
:100280001AF005C01BF019C0E9FF1AC0F3FF1B509C
:1002900053EC24F01C6E300E1C5C11E33A0E1C5C17
:1002A0000EE216500A0DF3CF1DF01D501C26D00E85
:1002B0001C24166E192A02E31A4A1B2AE4D719C015
:1002C00003F01AC004F01BC005F003C0E9FF04C02E
:1002D000F3FF055053EC24F0196E6C0A07E1010E90
:1002E0000C6E032A02E3044A052A09D01950680A51
:1002F00006E1010E0E6E032A02E3044A052A03C03A
:10030000E9FF04C0F3FF055053EC24F0750A06E141
:10031000010E106E032A02E3044A052A03C0E9FF16
:1003200004C0F3FF055053EC24F0196E730A05E185
:10033000010E0D6E200E156E3FD01950780A03E1A4
:10034000100E116E39D01950580A05E1100E116EB9
:10035000010E126E31D01950630A02E1116A2CD0DD
:1003600019506F0A03E1080E116E26D01950660A63
:1003700003E1010E0F6E20D01950640A1DE01950E0
:10038000690A1AE0105005E0FF0E03260422052238
:1003900013D01950E56E0250E56E0150E56E005025
:1003A000E56E48EC16F0040EE126094A0A2A032AF3
:1003B00002E3044A052AA3D60D5021E00650030F9C
:1003C0000D6E000E0720196E000E08201A6E0DC06B
:1003D00006F019C007F01AC008F0FD0E0D26FF0E3A
:1003E00019221A220DC0E9FF19C0F3FF1A5004ECBC
:1003F00023F00D6EF3CF19F0F4CF1AF0FDD00F50AB
:100400000DE0000E1A6E080E196E100E0D6E040E21
:100410000626000E072208221668EED016680C5039
:1004200023E00650040F0C6E000E07200F6E000E26
:1004300008201B6E0CC006F00FC007F01BC008F0B0
:10044000FC0E0C26FF0E0F221B220CC0E9FF0FC072
:10045000F3FF1B506DEC22F00C6EF3CF0FF0F4CFD6
:100460001BF0E9CF1CF067D00E502FE00650020FB2
:100470000E6E000E07201D6E000E08201E6E0EC0B0
:1004800006F01DC007F01EC008F0FE0E0E26FF0E7F
:100490001D221E220EC0E9FF1DC0F3FF1E50DBEC23
:1004A00023F00E6E0EC00CF00F6A1B6A1C6A11500E
:1004B0000A0A03E11050D8B43ED00C500E6E0EC0A4
:1004C0000CF00F6A1B6A1C6A36D00650020F0E6EC3
:1004D000000E07201D6E000E08201E6E0EC006F0D6
:1004E0001DC007F01EC008F0FE0E0E26FF0E1D22D6
:1004F0001E220EC0E9FF1DC0F3FF1E50DBEC23F0EF
:100500000E6EF3CF1DF00EC00CF01DC00FF0E86AA8
:100510001DBEFF0E1B6E1C6E11500A0A02E1105028
:100520000AE00C500E6E0F501D6E0EC00CF01DC078
:100530000FF01B6A1C6A040E196EF40E0D6E800E0D
:100540001A6E1150D8B440D0105013E01150E56E1F
:10055000040EE56EF40EE56E1C50E56E1B50E56E64
:100560000F50E56E0C50E56EE0EC0EF0070EE12644
:1005700012D01150E56E040EE56EF40EE56E1C50BF
:10058000E56E1B50E56E0F50E56E0C50E56EEAEC23
:1005900019F0070EE12617502FE00DC0E9FF19C032
:1005A000F3FF1A5053EC24F02D0A26E0FF0E0D261F
:1005B00019221A2218C0E5FF0DC0E9FF19C0F3FF88
:1005C0001A50FAEC24F018D00CC0E5FF0DC0E9FF7A
:1005D00019C0F3FF1A50FAEC24F00D50010F0C6E05
:1005E000000E19200E6E000E1A20E56A0CC0E9FFFD
:1005F0000EC0F3FFFAEC24F00DC00CF019C00EF0A1
:100600001AC00FF013C010F0105010E00CC0E9FF3A
:100610000EC0F3FF0F5053EC24F0176E175006E096
:100620000C2A02E30E4A0F2A1006EED710C013F070
:1006300014501EE109C00CF00AC00EF010C00FF0FB
:100640000F5010E01550E56E0250E56E0150E56E5A
:100650000050E56E48EC16F0040EE1260C4A0E2A16
:100660000F06EED70CC009F00EC00AF00FC013F051
:1006700016C00CF00DC00DF019C00EF01AC00FF02E
:1006800009C010F00AC015F00DC0E9FF0EC0F3FF5D
:100690000F5053EC24F0166E1650D8B43ED00CC058
:1006A00016F0176A161E171E1650171005E00CC01C
:1006B00016F00C06165031E00DC0E9FF0EC0F3FF36
:1006C0000F5053EC24F0116E125010E01150E56EF3
:1006D00098EC23F0166EE652165004E0DF0E11146B
:1006E000166E02D011C016F016C011F01150E56E52
:1006F0000250E56E0150E56E0050E56E48EC16F0D4
:10070000040EE1260D2A02E30E4A0F2A104A152A8A
:100710001350D8B4B9D71306B7D710C009F015C015
:100720000AF014502BE010C00CF015C00DF013C0EF
:100730000EF00E501FE0200EE56E0250E56E0150E7
:10074000E56E0050E56E48EC16F0040EE1260C4A0A
:100750000D2A0E06EED70B50E56E0250E56E0150E5
:10076000E56E0050E56E48EC16F0040EE126094AED
:100770000A2A04D00CC009F00DC00AF0032A02E3D3
:10078000044A052A7FEF00F00AC0F3FF0950E4CFC6
:100790001EF0E4CF1DF0E4CF1CF0E4CF1BF0E4CF5B
:1007A0001AF0E4CF19F0E4CF18F0E4CF17F0E4CF5B
:1007B00016F0E4CF15F0E4CF14F0E4CF13F0E4CF5B
:1007C00012F0E4CF11F0E4CF10F0E4CF0FF0E4CF5B
:1007D0000EF0E4CF0DF0E4CF0CF0E4CF0BF0E4CF5B
:1007E0000AF0E4CF09F0E4CF08F0E4CF07F0E4CF5B
:1007F00006F0E4CF05F0E4CF04F0E4CF03F0E4CF5B
:1008000002F0E4CF01F0E4CF00F0E4CFD9FF120012
:100810003C4E4F20464C4F41543E000000C0E5FF87
:1008200001C0E5FF02C0E5FF03C0E5FF04C0E5FF2E
:1008300005C0E5FF06C0E5FF07C0E5FF08C0E5FF0E
:1008400009C0E5FF0AC0E5FF0BC0E5FF0CC0E5FFEE
:10085000006A016A026A040E025CD8B0E8D101C0E5
:1008600003F0012A100E035CD8B0E1D10A01302B4D
:10087000100E305D01E3306B0A013039E8441F0B84
:10088000036E046A770E03260A0E042203C0E9FFF2
:1008900004C0EAFFEFCF03F0070E3015046E010E1F
:1008A000056E000E066E045006E0E86CD890053622
:1008B0000636010FFCE3076A0350051607500616BB
:1008C00005500610D880E866D890056A05360550B0
:1008D000D8A4C1D70A013051020DF450046EF3CFF1
:1008E00003F0E00E0324056E000E0420066E05C022
:1008F000E9FF06C0EAFFEECF05F0EFCF06F00A01F0
:100900002DA19DD0930E0324076E040E0420086EC3
:1009100007C0E9FF08C0EAFFEECF07F0EFCF08F00D
:100920000650800FF36E0850800FF35C02E1075011
:10093000055C03E2056A066A60D0B30E0326040E66
:10094000042203C0E9FF04C0EAFFEECF03F0EFCFBB
:1009500004F00450800FF36E0650800FF35C02E148
:100960000550035C04E205683F0E066E46D0075052
:10097000055C096E085006580A6EE86A0ABEFF0E4A
:100980000B6EE56E0B50E56E0A50E56E0950E56E94
:10099000E56AE56A400EE56E000EE56AEDEC0BF0E7
:1009A000096EF3CF0AF0F4CF0BF0E9CF0CF0080E8C
:1009B000E1260750035C076E08500458086EE86A89
:1009C00008BEFF0E036EE56E0350E56E0850E56E3F
:1009D0000750E56E0C50E56E0B50E56E0A50E56E63
:1009E0000950E56E8BEC13F0036EF3CF04F0080EA4
:1009F000E1260350056E0450066E0A012C51800F4B
:100A0000F36E0650800FF35C02E105502B5D03E3AB
:100A1000056A066A14D00A012B51FF08036E3F0EC7
:100A20002C55046E0650800FF36E0450800FF35C5B
:100A300002E10350055C03E305683F0E066E0A0100
:100A40003051020DF450046EF3CF03F0590E03261B
:100A5000040E042203C0E9FF04C0EAFFEECF03F056
:100A6000EFCF04F00350055C036E04500658046E8B
:100A7000D88004AED89004E3041E036CD8B4042AD2
:100A8000022A0A012C51800FF36E0450800FF35C90
:100A900002E103502B5DD8B0DED60A013051020DC1
:100AA000F450086EF3CF07F0590E0726040E082203
:100AB00007C0E9FF08C0EAFF05C0EEFF06C0EFFF70
:100AC0000A012DA55AD00A013051020DF450086ECA
:100AD000F3CF07F0D30E0724096E040E08200A6E28
:100AE00009C0E9FF0AC0EAFFEECF0BF0EFCF0CF030
:100AF0000B500C10D8B441D0390E0726040E082232
:100B000007C0E9FF08C0EAFFEECF07F0EFCF08F01B
:100B10000750055C036E08500658046E03101CE075
:100B20000450800F800F02E1010E035C076A073654
:100B30000C50800F800F02E1010E0B5C0B6A0B362C
:100B400007500B1809E109C0E9FF0AC0EAFF03C01A
:100B5000EEFF04C0EFFF7FD60A013051020DF450C2
:100B6000046EF3CF03F0D30E0326040E042203C059
:100B7000E9FF04C0EAFFEE6AEF6A0A012DA343D041
:100B800000500EE100C003F0002A046A310E032673
:100B90000A0E042203C0E9FF04C0EAFF420EEF6E12
:100BA00000C003F0002A046A310E03260A0E042254
:100BB000640E0A013025076E03C0E9FF04C0EAFF96
:100BC00007C0EFFF00C003F0002A046A310E0326BD
:100BD0000A0E04220650076E03C0E9FF04C0EAFFB4
:100BE00007C0EFFF00C003F0002A046A310E03269D
:100BF0000A0E04220550076E03C0E9FF04C0EAFF95
:100C000007C0EFFF28D630CA03F00650E56E055046
:100C1000E56EE56A0350E56E000EE56E2E0EE56E9C
:100C20009C0EE56E28EC1EF0070EE12614D602C0DD
:100C300001F000501DE00A012DA31AD000C002F0FF
:100C4000002A036A310E02260A0E032202C0E9FFBF
:100C500003C0EAFF0A0EEF6E0050E56E800EE56EEF
:100C60000A0EE56E310EE56E54EC17F0040EE12627
:100C70000150E4CF0CF0E4CF0BF0E4CF0AF0E4CF66
:100C800009F0E4CF08F0E4CF07F0E4CF06F0E4CFBA
:100C900005F0E4CF04F0E4CF03F0E4CF02F0E4CFBA
:100CA00001F0E4CF00F0120000C0E5FF01C0E5FF55
:100CB00002C0E5FF03C0E5FF04C0E5FF56EC25F0E8
:100CC00094928B9235EC21F0F3CF01F0F4CF02F047
:100CD000E9CF03F0880F0401336F130E0120346F46
:100CE000000E0220356F000E0320366F1BEC1DF046
:100CF000938A810E006E0F0E016E0F0E036E380E7A
:100D00000026035001220F0E036E800E005E03507A
:100D1000015A810E026E0F0E036E0F0E046E380E16
:100D20000226045003220F0E046E800E025E045051
:100D3000035A02C0E9FF03C0EAFFEFCF02F0029AB4
:100D400000C0E9FF01C0EAFF02C0EFFF050EE56E3B
:100D5000800EE56E0F0EE56E810EE56E000EE56A03
:100D600062EC1DF0050EE1269388810E006E0F0ED9
:100D7000016E0F0E036E380E0026035001220F0E77
:100D8000036E800E005E0350015A810E026E0F0E3C
:100D9000036E0F0E046E380E0226045003220F0E4F
:100DA000046E800E025E0450035A02C0E9FF03C0C5
:100DB000EAFFEFCF02F0029800C0E9FF01C0EAFFAE
:100DC00002C0EFFF040EE56E800EE56E0F0EE56EBD
:100DD000810EE56E010EE56E62EC1DF0050EE1265A
:100DE0009386810E006E0F0E016E0F0E036E380E8D
:100DF0000026035001220F0E036E800E005E03508A
:100E0000015A810E026E0F0E036E0F0E046E380E25
:100E10000226045003220F0E046E800E025E045060
:100E2000035A02C0E9FF03C0EAFFEFCF02F00296C7
:100E300000C0E9FF01C0EAFF02C0EFFF030EE56E4C
:100E4000800EE56E0F0EE56E810EE56E020EE56E0C
:100E500062EC1DF0050EE1269384810E006E0F0EEC
:100E6000016E0F0E036E380E0026035001220F0E86
:100E7000036E800E005E0350015A810E026E0F0E4B
:100E8000036E0F0E046E380E0226045003220F0E5E
:100E9000046E800E025E0450035A02C0E9FF03C0D4
:100EA000EAFFEFCF02F0029400C0E9FF01C0EAFFC1
:100EB00002C0EFFF020EE56E800EE56E0F0EE56ECE
:100EC000810EE56E030EE56E62EC1DF0050EE12667
:100ED0009382810E006E0F0E016E0F0E036E380EA0
:100EE0000026035001220F0E036E800E005E035099
:100EF000015A810E026E0F0E036E0F0E046E380E35
:100F00000226045003220F0E046E800E025E04506F
:100F1000035A02C0E9FF03C0EAFFEFCF02F00292DA
:100F200000C0E9FF01C0EAFF02C0EFFF010EE56E5D
:100F3000800EE56E0F0EE56E810EE56E040EE56E19
:100F400062EC1DF0050EE1269380810E006E0F0EFF
:100F5000016E0F0E036E380E0026035001220F0E95
:100F6000036E800E005E0350015A810E026E0F0E5A
:100F7000036E0F0E046E380E0226045003220F0E6D
:100F8000046E800E025E0450035A02C0E9FF03C0E3
:100F9000EAFFEFCF02F0029000C0E9FF01C0EAFFD4
:100FA00002C0EFFFE56A800EE56E0F0EE56E810E62
:100FB000E56E050EE56E62EC1DF0050EE126F19E74
:100FC00092909292929492989296929AD1EC16F074
:100FD0009484820E006E0F0E016E0F0E036E380E9B
:100FE0000026035001220F0E036E800E005E035098
:100FF000015A820E026E0F0E036E0F0E046E380E33
:101000000226045003220F0E046E800E025E04506E
:10101000035A02C0E9FF03C0EAFFEFCF02F00284E7
:1010200000C0E9FF01C0EAFF02C0EFFF0E0EE56E4F
:10103000000EE56A87EC19F0E652E652948A820EB9
:10104000006E0F0E016E0F0E036E380E0026035059
:1010500001220F0E036E800E005E0350015A820EB5
:10106000026E0F0E036E0F0E046E380E0226045031
:1010700003220F0E046E800E025E0450035A02C05B
:10108000E9FF03C0EAFFEFCF02F0028A00C0E9FFE8
:1010900001C0EAFF02C0EFFF110EE56E010EE56E22
:1010A00087EC19F0E652E652270EE56EE56A080E67
:1010B000E56EFAEC12F0030EE126E56A800EE56EAD
:1010C000040EE56E790EE56E50EC1BF0040EE12681
:1010D000010EE56E800EE56E040EE56E810EE56E86
:1010E00050EC1BF0040EE126E4CF04F0E4CF03F053
:1010F000E4CF02F0E4CF01F0E4CF00F012004300AF
:101100002563000000C0E5FF01C0E5FF02C0E5FF68
:1011100003C0E5FF04C0E5FF05C0E5FF06C0E5FF2D
:1011200007C0E5FF08C0E5FF09C0E5FF0AC0E5FF0D
:10113000C2A204D00A012E5195EF0AF00A012F51E4
:10114000D8B41BD10A012E51020DF450016EF3CF19
:1011500000F0E00E0026000E012200C0E9FF01C0F1
:10116000EAFFEECF00F0EFCF01F0230E2E25026E46
:10117000036A0F0E032202C0E9FF03C0EAFFEFCFAC
:1011800002F00250FF0A01E152D002380F0B036E49
:10119000920E0324046E056A0F0E0522066A920E53
:1011A00003260F0E062203C0E9FF06C0EAFFEFCFB9
:1011B00003F0070E0214066E010E076E065005E0DE
:1011C000E86CD8900736010FFDE3071C066E031686
:1011D00004C0E9FF05C0EAFF03C0EFFF02380F0BB0
:1011E000036E890E0324046E056A0F0E0522066A3B
:1011F000890E03260F0E062203C0E9FF06C0EAFF90
:10120000EFCF03F0070E0214066E010E076E0650B4
:1012100005E0E86CD8900736010FFDE3071C066E69
:10122000031604C0E9FF05C0EAFF03C0EFFF0A018F
:101230002E51020DF450046EF3CF03F0E00E03269E
:10124000000E042201340130066E0030056E0634B3
:10125000063205320634063205320550005C056E52
:1012600006500158066EC3CF07F0086A07500526DE
:1012700008500622C4CF07F0086A07500A6E096AB0
:10128000095005260A50062203C0E9FF04C0EAFF00
:1012900005C0EEFF06C0EFFF0A012A51010A01E076
:1012A0006AD00A012E51020DF450046EF3CF03F000
:1012B000E00E0324056E000E0420066E05C0E9FF53
:1012C00006C0EAFFEECF00F0EFCF01F0930E032649
:1012D000040E042203C0E9FF04C0EAFFEECF05F0CC
:1012E000EFCF06F09C0E0526D8A006060150800F11
:1012F000F36E0650800FF35C02E10550005C0EE2D5
:101300000050640F056E000E0120066E03C0E9FF59
:1013100004C0EAFF05C0EEFF06C0EFFF0A012E5130
:10132000020DF450046EF3CF03F0B30E0326040E47
:10133000042203C0E9FF04C0EAFFEECF05F0EFCFBF
:1013400006F0640E0526D8B0062A0650800FF36E0C
:101350000150800FF35C02E10050055C0CE29C0E32
:101360000026D8A0010603C0E9FF04C0EAFF00C0C0
:10137000EEFF01C0EFFF0A012F6B0A012E2B100EAA
:101380002E5D01E32E6B0A012E39E8441F0B006E1F
:10139000016A770E00260A0E012200C0E9FF01C093
:1013A000EAFFEFCF00F0070E2E15016E010E036E5F
:1013B000000E046E015006E0E86CD8900336043647
:1013C000010FFCE3056A0050031605500416035094
:1013D0000410D880E866D890036A03360350D8A476
:1013E000A2D03F0E0A012E25006E016A0A0E0122CC
:1013F00000C0E9FF01C0EAFFEFCF00F00044E8447D
:10140000FC0B016E0128C26E230E2E25006E016AB0
:101410000F0E012200C0E9FF01C0EAFFEFCF02F08A
:101420000250FF0A01E17BD002380F0B006E920ED2
:101430000024016E036A0F0E0322046A920E002636
:101440000F0E042200C0E9FF04C0EAFFEFCF00F056
:10145000070E0214046E010E056E045005E0E86CE0
:10146000D8900536010FFDE30550001201C0E9FFD9
:1014700003C0EAFF00C0EFFF380E006E0F0E016ED2
:1014800002380F0B036E046A035000260450012239
:10149000380E056E0F0E066E055003260650042208
:1014A00003C0E9FF04C0EAFFEFCF03F0070E021606
:1014B000010E046E025005E0E86CD8900436010F6E
:1014C000FDE30450031200C0E9FF01C0EAFF03C0BE
:1014D000EFFF0F0145830000000045930F01449387
:1014E0000BC0E5FFF2CF0BF0F29E4481000000003C
:1014F00000000000000000000000000000000000EC
:1015000000000000000000000000000000000000DB
:101510000000000044910BBEF28EE4CF0BF0C282BB
:10152000010E0A012F6F0A012E51E4CF0AF0E4CF19
:1015300009F0E4CF08F0E4CF07F0E4CF06F0E4CF01
:1015400005F0E4CF04F0E4CF03F0E4CF02F0E4CF01
:1015500001F0E4CF00F01200800EE56E040EE56E9F
:10156000B30EE56EA0EC1BF0030EE126800EE56ED7
:10157000040EE56E930EE56EA0EC1BF0030EE12663
:10158000800EE56E040EE56EB50EE56EA0EC1BF068
:10159000030EE126800EE56E040EE56E950EE56EF7
:1015A000A0EC1BF0030EE126800EE56E040EE56E46
:1015B000B70EE56EA0EC1BF0030EE126800EE56E83
:1015C000040EE56E970EE56EA0EC1BF0030EE1260F
:1015D000800EE56E040EE56EB90EE56EA0EC1BF014
:1015E000030EE126800EE56E040EE56E990EE56EA3
:1015F000A0EC1BF0030EE126800EE56E040EE56EF6
:10160000BB0EE56EA0EC1BF0030EE126800EE56E2E
:10161000040EE56E9B0EE56EA0EC1BF0030EE126BA
:10162000800EE56E040EE56EBD0EE56EA0EC1BF0BF
:10163000030EE126800EE56E040EE56E9D0EE56E4E
:10164000A0EC1BF0030EE126800EE56E040EE56EA5
:10165000BF0EE56EA0EC1BF0030EE126800EE56EDA
:10166000040EE56E9F0EE56EA0EC1BF0030EE12666
:10167000800EE56E040EE56EC10EE56EA0EC1BF06B
:10168000030EE126800EE56E040EE56EA10EE56EFA
:10169000A0EC1BF0030EE126800EE56E040EE56E55
:1016A000C30EE56EA0EC1BF0030EE126800EE56E86
:1016B000040EE56EA30EE56EA0EC1BF0030EE12612
:1016C000800EE56E040EE56EC50EE56EA0EC1BF017
:1016D000030EE126800EE56E040EE56EA50EE56EA6
:1016E000A0EC1BF0030EE126800EE56E040EE56E05
:1016F000C70EE56EA0EC1BF0030EE126800EE56E32
:10170000040EE56EA70EE56EA0EC1BF0030EE126BD
:10171000800EE56E040EE56EC90EE56EA0EC1BF0C2
:10172000030EE126800EE56E040EE56EA90EE56E51
:10173000A0EC1BF0030EE126800EE56E040EE56EB4
:10174000CB0EE56EA0EC1BF0030EE126800EE56EDD
:10175000040EE56EAB0EE56EA0EC1BF0030EE12669
:10176000800EE56E040EE56ECD0EE56EA0EC1BF06E
:10177000030EE126800EE56E040EE56EAD0EE56EFD
:10178000A0EC1BF0030EE126800EE56E040EE56E64
:10179000CF0EE56EA0EC1BF0030EE126800EE56E89
:1017A000040EE56EAF0EE56EA0EC1BF0030EE12615
:1017B000800EE56E040EE56ED10EE56EA0EC1BF01A
:1017C000030EE126800EE56E040EE56EB10EE56EA9
:1017D000A0EC1BF0030EE1261200D9CFE5FFE1CF0C
:1017E000D9FF00C0E5FF01C0E5FF02C0E5FF03C06F
:1017F000E5FF04C0E5FF05C0E5FF06C0E5FF07C043
:10180000E5FF020EDBCF00F0030EDBCF01F0040E8C
:10181000DBCF02F0050EDBCF03F0060EDBCF04F0CA
:10182000070EDBCF05F0080EDBCF06F0090EDBCF8D
:1018300007F0005004018E6F01508F6F0250906FBF
:101840000350916F04500A01586F0550596F0650AC
:101850005A6F07505B6F04018E510A015A03F4CF8F
:1018600001F0F3CF00F000500A015E6F01505F6F8E
:1018700004018E510A015803F4CF01F0F3CF00F0B8
:1018800000500A015C6F01505D6F040191510A0123
:101890005803F3CF00F00A015F51002600505F6F3C
:1018A000040190510A015903F3CF01F001500026C1
:1018B00000500A015F6F040190510A015803F4CFF0
:1018C00001F0F3CF00F00A015E5100265F510122C2
:1018D00000505E6F01505F6F04018F510A01590380
:1018E000F4CF03F0F3CF02F00250002603500122A0
:1018F00000500A015E6F01505F6F04018F510A01B1
:101900005A03F3CF00F000500A01636F04018F51B6
:101910000A015803F4CF01F0F3CF00F000500A01A0
:10192000616F0150626F04018E510A015B03F3CFB6
:1019300000F000500A01676F04018E510A0159033B
:10194000F4CF01F0F3CF00F000500A01656F0150B1
:10195000666F0A01606B0A01646B0A0160510A013B
:101960005C25006E0A0161510A015D21016E0A01C8
:1019700062510A015E21026E0A0163510A015F2170
:10198000036E00505C6F01505D6F02505E6F03503C
:101990005F6F0A0164510A015C25006E0A016551FE
:1019A0000A015D21016E0A0166510A015E21026E83
:1019B0000A0167510A015F21036E03C0E9FF02C0FB
:1019C000F4FF01C0F3FF0050E4CF07F0E4CF06F0CE
:1019D000E4CF05F0E4CF04F0E4CF03F0E4CF02F06D
:1019E000E4CF01F0E4CF00F0E4CFD9FF120000C053
:1019F000E5FF01C0E5FF0A012651D8B4F5D09DA846
:101A00001DD09EA81BD00A0181510A017E1905E153
:101A1000A2EC24F00A017E6BE7D0000E0A018125BA
:101A2000006E016A040E012200C0E9FF01C0EAFF56
:101A3000EFCF7AFA812B7ACAADFFD6D09EAAD4D046
:101A4000ABA205D00A017F81A2EC24F0CDD0ABA4DB
:101A500005D00A017F83A2EC24F0C6D0ABA03ED013
:101A6000AECF7AFA800E0A0127110A017A1904E131
:101A70000A017F89AB96B8D00A017A5104E07A5105
:101A80000A01271927E10A017F99AB960A017A51C9
:101A900003E00A017F9702D00A017F877ACA83FA9E
:101AA0007CCA84FA0A017C050A01856F600E0A016E
:101AB0008425006E016A000E012200C0E9FF01C00A
:101AC000EAFF7ACAEFFF842B8451800A02E10A01FF
:101AD000846B8AD00A017F99AB8686D0AECF7AFA22
:101AE0000A017FA919D0800E0A0127110A017A196B
:101AF00011E18B909D9AAB980A017E5104E1AD6A89
:101B0000A2EC24F007D000C4ADFF010E0A01816FE2
:101B10009D886AD0AB8668D00A017A510A01832772
:101B20000A0184510A0185191BE10A0183510CE164
:101B300084CA7CFA0A017FB712D08B909D9AAB9829
:101B4000AD6AA2EC24F00BD00A017F857FB707D0E5
:101B50008B909D9AAB98010EAD6EA2EC24F044D010
:101B60000A0184510A017D1908E10A017D510A0127
:101B70007C1903E0A2EC24F037D07CCA00F0016AA3
:101B8000004A012AE56A800EE56E0150E56E0050BC
:101B9000E56E46EC18F0006E040EE12600500A01D6
:101BA0007B6F0A0184190CE11F0E0A017A150A01E4
:101BB000856F852B852B0A017C510A018527859F1E
:101BC00084CA00F00A01842B016A600E0026000E10
:101BD000012200C0E9FF01C0EAFF7ACAEFFF845189
:101BE000800A02E10A01846BE4CF01F0E4CF00F047
:101BF000120000C0E5FF01C0E5FF02C0E5FF03C021
:101C0000E5FF04C0E5FF05C0E5FF06C0E5FF07C02E
:101C1000E5FF08C0E5FF09C0E5FF0AC0E5FF006A6F
:101C2000016A040E015CD8B0B3D0230E0A01292545
:101C3000026E036A040E032202C0E9FF03C0EAFF3A
:101C4000EFCF02F00250FF0A01E19BD00A012939CF
:101C5000E8441F0B026E750E0224036E046A0A0E1E
:101C6000042203C0E9FF04C0EAFFEFCF03F0070E30
:101C70002915046E010E056E000E066E045006E076
:101C8000E86CD89005360636010FFCE3076A05506C
:101C900003160650071603500710D880E866D89040
:101CA000036A03360350D880E866D890036A033687
:101CB000076A730E02260A0E072202C0E9FF07C058
:101CC000EAFFEFCF08F008C009F00A6A09500516CC
:101CD0000A50061605500610D880E866D890056AA6
:101CE00005360550D880E866D890056A0536035059
:101CF000051801E146D0035012E0010E056E0450B4
:101D000005E0E86CD8900536010FFDE30550081298
:101D100002C0E9FF07C0EAFF08C0EFFF17D002C00A
:101D2000E9FF07C0EAFFEFCF05F0010E066E045091
:101D300005E0E86CD8900636010FFDE3061C051699
:101D400002C0E9FF07C0EAFF05C0EFFF035003E14F
:101D5000036A032A01D0036A29CA04F0E56A035022
:101D6000E56EE56A0450E56E000EE56E3A0EE56E2E
:101D7000B80EE56E28EC1EF0070EE126012A01C020
:101D800000F00A01292B100E295DD8A04AD7296B33
:101D90000050E4CF0AF0E4CF09F0E4CF08F0E4CF3C
:101DA00007F0E4CF06F0E4CF05F0E4CF04F0E4CF91
:101DB00003F0E4CF02F0E4CF01F0E4CF00F0120032
:101DC000D9CFE5FFE1CFD9FF00C0E5FF01C0E5FFB6
:101DD00002C0E5FF03C0E5FF04C0E5FF05C0E5FF65
:101DE00006C0E5FF07C0E5FF08C0E5FF09C0E5FF45
:101DF0000AC0E5FF0BC0E5FF0CC0E5FF0DC0E5FF25
:101E00000EC0E5FF0FC0E5FF020EDBCF00F0030EB2
:101E1000DBCF01F0040EDBCF02F0050EDBCF03F0C9
:101E2000060EDBCF04F0070EDBCF05F0080EDBCF8C
:101E300006F0200E076E086A06C009F00A6A0B6AEF
:101E40000C6AE56AE56AE56A0950E56E0350E56EDD
:101E50000250E56E0150E56E0050E56E2BEC11F07E
:101E60000D6E080EE126300E0D263A0E0D5C05E3D0
:101E70000D500E6E270E0E240D6EFF0E0726082243
:101E8000000E07240E6E0A0E08200F6E0EC0E9FF2A
:101E90000FC0EAFF0DC0EFFF0C50E56E0B50E56E72
:101EA0000A50E56E0950E56E0350E56E0250E56E8E
:101EB0000150E56E0050E56E8BEC13F0006EF3CF31
:101EC00001F0F4CF02F0E9CF03F0080EE126005054
:101ED000011002100310D8A4AFD707C000F008C04B
:101EE00001F004C002F005C003F000C004F001C01E
:101EF00005F0004A012A000E04260A0E052204C03D
:101F0000E9FF05C0EAFFEFCF04F002C0E9FF03C01C
:101F1000EAFF04C0EFFF024A032A000E015C02E15F
:101F2000200E005CE2E302C0E9FF03C0EAFF000EFE
:101F3000EF6AE4CF0FF0E4CF0EF0E4CF0DF0E4CF82
:101F40000CF0E4CF0BF0E4CF0AF0E4CF09F0E4CFDB
:101F500008F0E4CF07F0E4CF06F0E4CF05F0E4CFDB
:101F600004F0E4CF03F0E4CF02F0E4CF01F0E4CFDB
:101F700000F0E4CFD9FF1200D9CFE5FFE1CFD9FFC0
:101F800000C0E5FF01C0E5FF02C0E5FF03C0E5FFBB
:101F900004C0E5FF05C0E5FF06C0E5FF020EDBCF8C
:101FA00000F0030EDBCF01F0040EDBCF02F000C027
:101FB000E9FF01C0F3FF025053EC24F0036EE56A21
:101FC000E56EA5EC20F0E652E652320EE56E51ECDD
:101FD00023F0E6523EEC25F0010EE56E0350E56E6F
:101FE000A5EC20F0E652E6520050010F036E000E01
:101FF0000120046E000E0220056EB0EC24F0066E87
:1020000006C0E5FF03C0E9FF04C0F3FF0550FAEC8A
:1020100024F028EC25F00050020F036E000E012082
:10202000046E000E0220056EB0EC24F0066E06C0B1
:10203000E5FF03C0E9FF04C0F3FF0550FAEC24F00C
:1020400028EC25F00050030F036E000E0120046EF3
:10205000000E0220056EB0EC24F0066E06C0E5FF0F
:1020600003C0E9FF04C0F3FF0550FAEC24F028ECAC
:1020700025F00050040F036E000E0120046E000EC8
:102080000220056EB0EC24F0066E06C0E5FF03C02A
:10209000E9FF04C0F3FF0550FAEC24F028EC25F02A
:1020A0000050050F036E000E0120046E000E02208A
:1020B000056EB0EC24F0066E06C0E5FF03C0E9FF34
:1020C00004C0F3FF0550FAEC24F028EC25F0060ECE
:1020D0000026000E01220222B0EC24F0036E03C0A1
:1020E000E5FF00C0E9FF01C0F3FF0250FAEC24F065
:1020F0003EEC25F0E4CF06F0E4CF05F0E4CF04F0A9
:10210000E4CF03F0E4CF02F0E4CF01F0E4CF00F03D
:10211000E4CFD9FF120000C0E5FF01C0E5FF02C017
:10212000E5FF03C0E5FF04C0E5FF05C0E5FF006A69
:10213000230E0024016E026A040E022201C0E9FF90
:1021400002C0EAFFEFCF01F00150FF0A01E171D0B8
:1021500001380F0B026E036A800E02260F0E032257
:1021600002C0E9FF03C0EAFFEFCF02F0070E01163D
:10217000010E036E000E046E015006E0E86CD8906C
:1021800003360436010FFCE3056A025003160550BE
:10219000041603500410D880E866D890036A03360A
:1021A000035024E10038E8441F0B016E026A750EEB
:1021B00001260A0E022201C0E9FF02C0EAFFEFCFAA
:1021C00003F0070E0014046E010E056E045005E0C6
:1021D000E86CD8900536010FFDE30550031201C0ED
:1021E000E9FF02C0EAFF03C0EFFF23D00038E84454
:1021F0001F0B016E026A750E01260A0E022201C033
:10220000E9FF02C0EAFFEFCF03F0070E0014046EEF
:10221000010E056E045005E0E86CD8900536010FFC
:10222000FDE3051C031601C0E9FF02C0EAFF03C07D
:10223000EFFF002A100E005CD8A07AD7E4CF05F09B
:10224000E4CF04F0E4CF03F0E4CF02F0E4CF01F0F8
:10225000E4CF00F01200D9CFE5FFE1CFD9FF00C0F5
:10226000E5FF01C0E5FF02C0E5FF03C0E5FF04C0D4
:10227000E5FF05C0E5FF06C0E5FF07C0E5FF08C0B4
:10228000E5FF09C0E5FF0AC0E5FF020EDBCF00F065
:10229000030EDBCF01F0040EDBCF02F0050EDBCF27
:1022A00003F0060EDBCF04F0070EDBCF05F0080EBF
:1022B000DBCF06F0090EDBCF07F0086A04500510EB
:1022C0000610071005E1E968F468F368E86847D08C
:1022D000096A0750800BE8440A6E0A501BE104505B
:1022E00004260536063607360750035C08E106501B
:1022F000025C05E10550015C02E10450005C06E26D
:10230000D890073206320532043204D0092A09C0B7
:1023100008F0DFD70750035C08E10650025C05E1D6
:102320000550015C02E10450005C08E30450005ECB
:102330000550015A0650025A0750035AD8900732E6
:1023400006320532043208C009F008060950E2E1FD
:1023500003C0E9FF02C0F4FF01C0F3FF0050E4CF67
:102360000AF0E4CF09F0E4CF08F0E4CF07F0E4CFBF
:1023700006F0E4CF05F0E4CF04F0E4CF03F0E4CFBF
:1023800002F0E4CF01F0E4CF00F0E4CFD9FF120077
:1023900000C0E5FF01C0E5FF02C0E5FF03C0E5FFA7
:1023A000A8EC14F08BEC10F0A8EC14F082EC08F020
:1023B000A8EC14F0800EE56E040EE56E790EE56E65
:1023C000BCEC0FF0030EE126A8EC14F0800EE56ED5
:1023D000040EE56E810EE56EBCEC0FF0030EE126F7
:1023E000A8EC14F035EC21F0006EF3CF01F0F4CF3F
:1023F00002F0E9CF03F004013351005E3451015A79
:102400003551025A3651035A039E3F0E035C08E1D0
:10241000FF0E025C05E1FF0E015C02E1FF0E005CB5
:10242000D8B047D035EC21F0F3CF01F0F4CF02F073
:10243000E9CF03F0880F0401336F130E0120346FCE
:10244000000E0220356F000E0320366F0A01205166
:1024500008E1F9EC0DF0006E005024E10EEC04F000
:1024600021D00A012051010A0DE1010EE56E800E16
:10247000E56E040EE56E790EE56E62EC12F0040E68
:10248000E12610D00A012051020A0CE1020EE56E8D
:10249000800EE56E040EE56E810EE56E62EC12F0C4
:1024A000040EE1260A01202B2051030A02E10A0151
:1024B000206BE4CF03F0E4CF02F0E4CF01F0E4CFEF
:1024C00000F01200D9CFE5FFE1CFD9FF00C0E5FF52
:1024D00001C0E5FF02C0E5FF03C0E5FF04C0E5FF62
:1024E000020EDBCF00F0030EDBCF01F0040EDBCFDA
:1024F00002F0050EDBCF03F0420E0A014F6F0350CE
:10250000506F0050010F036E000E0120046E000E8C
:10251000022003C0E9FF04C0F3FF53EC24F00A01DA
:10252000516F0050020F036E000E0120046E000E6A
:10253000022003C0E9FF04C0F3FF53EC24F00A01BA
:10254000526F0050030F036E000E0120046E000E48
:10255000022003C0E9FF04C0F3FF53EC24F00A019A
:10256000536F0050040F036E000E0120046E000E26
:10257000022003C0E9FF04C0F3FF53EC24F00A017A
:10258000546F0050050F036E000E0120046E000E04
:10259000022003C0E9FF04C0F3FF53EC24F00A015A
:1025A000556F060E0026000E0122022200C0E9FF30
:1025B00001C0F3FF025053EC24F00A01566F0A0EDB
:1025C000576F090EE56E800EE56E0A0EE56E4F0E32
:1025D000E56E54EC17F0040EE126E4CF04F0E4CFEE
:1025E00003F0E4CF02F0E4CF01F0E4CF00F0E4CF59
:1025F000D9FF1200D9CFE5FFE1CFD9FF00C0E5FF39
:1026000001C0E5FF02C0E5FF03C0E5FF04C0E5FF30
:1026100005C0E5FF020EDBCF00F0030EDBCF01F0BB
:10262000040EDBCF02F03F0EC716C66AC56A005023
:10263000C6120150C7129488820E006E0F0E016EF2
:102640000F0E046E380E0026045001220F0E046E89
:10265000800E005E0450015A820E036E0F0E046E4F
:102660000F0E056E380E0326055004220F0E056E60
:10267000800E035E0550045A03C0E9FF04C0EAFF60
:10268000EFCF03F0039800C0E9FF01C0EAFF03C0E9
:10269000EFFF9486820E006E0F0E016E0F0E046E19
:1026A000380E0026045001220F0E046E800E005ECC
:1026B0000450015A820E036E0F0E046E0F0E056E4B
:1026C000380E0326055004220F0E056E800E035EA1
:1026D0000550045A03C0E9FF04C0EAFFEFCF03F03E
:1026E000039600C0E9FF01C0EAFF03C0EFFF02C08C
:1026F000C8FFC68A9E96A196E4CF05F0E4CF04F009
:10270000E4CF03F0E4CF02F0E4CF01F0E4CF00F037
:10271000E4CFD9FF1200D9CFE5FFE1CFD9FF00C048
:10272000E5FF01C0E5FF02C0E5FF03C0E5FF04C00F
:10273000E5FF05C0E5FF06C0E5FF07C0E5FF08C0EF
:10274000E5FF09C0E5FF0AC0E5FF0BC0E5FF0CC0CF
:10275000E5FF0DC0E5FF020EDBCF00F0030EDBCF7F
:1027600001F0040EDBCF02F0050EDBCF03F0060E06
:10277000DBCF04F0070EDBCF05F0080EDBCF06F051
:10278000090EDBCF07F0086A096A0A6A0B6A200E95
:102790000C6E0350800BE8440D6E0050002601368D
:1027A000023603360850082609360A360B360D5015
:1027B000D8A4088007500B5C08E106500A5C05E1CC
:1027C0000550095C02E10450085C09E30450085E0E
:1027D0000550095A06500A5A07500B5A00800C043B
:1027E0000D6E0DC00CF00D50D4E103C0E9FF02C026
:1027F000F4FF01C0F3FF0050E4CF0DF0E4CF0CF084
:10280000E4CF0BF0E4CF0AF0E4CF09F0E4CF08F016
:10281000E4CF07F0E4CF06F0E4CF05F0E4CF04F016
:10282000E4CF03F0E4CF02F0E4CF01F0E4CF00F016
:10283000E4CFD9FF120000C0E5FF01C0E5FF03C0EF
:10284000E5FF04C0E5FF05C0E5FF06C0E5FF07C0E2
:10285000E5FF08C0E5FF09C0E5FF0AC0E5FF0BC0C2
:10286000E5FF71CA00F072CA01F00A01713F01D0A0
:10287000722B0050E56E94EC24F0E652076E046A69
:10288000056A066A71CA00F072CA01F00A01713F56
:1028900001D0722B0050E56E94EC24F0E6520B6AE6
:1028A0000A6E086A0850041205120A5006120B50EC
:1028B000071271CA00F072CA01F00A01713F01D01B
:1028C000722B0050E56E94EC24F0E652036E006A21
:1028D00003C001F0E86A03BEFF0E086E096E0050E7
:1028E000041201500512085006120950071271CA4D
:1028F00000F072CA01F00A01713F01D0722B005042
:10290000E56E94EC24F0E652016A041201500512BF
:102910000612071207C0E9FF06C0F4FF05C0F3FF67
:102920000450E4CF0BF0E4CF0AF0E4CF09F0E4CF99
:1029300008F0E4CF07F0E4CF06F0E4CF05F0E4CFF1
:1029400004F0E4CF03F0E4CF01F0E4CF00F0120094
:1029500000C0E5FF01C0E5FF02C0E5FF03C0E5FFE1
:1029600004C0E5FF0A017D510A017C1901E15FD035
:102970007DCA00F0002A009E600E0024016E026AEB
:10298000000E022201C0E9FF02C0EAFFEFCF87FA82
:102990001F0E0A0187177DCA86FA87510A0186270A
:1029A000862B862B869F5FEC21F0016E015003E1A0
:1029B000016A012A01D0016A5FEC21F00A01876FE8
:1029C000800E8715026E1F0E8715036E03C004F07C
:1029D00003C087FA045003E17CCA7DFA3BD0015062
:1029E0001BE0025022E05FEC21F0006E0A01870735
:1029F0000050420A1AE000504E0A03E1A6EC1DF016
:102A000014D00050460A03E1E4EC24F00ED000504C
:102A1000490A0BE1FF0009D07DCA88FA025003E0A1
:102A2000A7EC1EF002D00AEC20F086CA7DFA0A015B
:102A300023510A01241906E00A017E5103E1BFEC8B
:102A400015F008D08BB006D00A017E5103E1ACB27C
:102A5000A2EC24F0E4CF04F0E4CF03F0E4CF02F0E2
:102A6000E4CF01F0E4CF00F01200D9CFE5FFE1CFD1
:102A7000D9FF00C0E5FF01C0E5FF02C0E5FF03C0CC
:102A8000E5FF04C0E5FF05C0E5FF06C0E5FF07C0A0
:102A9000E5FF08C0E5FF09C0E5FF0AC0E5FF020E3B
:102AA000DBCF00F0030EDBCF01F0040EDBCF02F032
:102AB000050EDBCF03F0060EDBCF04F0070EDBCFF5
:102AC00005F00038E8441F0B066E076A770E0626ED
:102AD0000A0E072206C0E9FF07C0EAFFEFCF08F0A1
:102AE000070E0014096E010E0A6E095005E0E86C2D
:102AF000D8900A36010FFDE30A50081206C0E9FF1C
:102B000007C0EAFF08C0EFFF3F0E0024066E076A09
:102B10000A0E072206C0E9FF07C0EAFF01C0EFFF67
:102B2000016A230E00260F0E0122800E025E070EA0
:102B300002160238F00B036E070E05160550032629
:102B400000C0E9FF01C0EAFF03C0EFFFE4CF0AF0D5
:102B5000E4CF09F0E4CF08F0E4CF07F0E4CF06F0CB
:102B6000E4CF05F0E4CF04F0E4CF03F0E4CF02F0CB
:102B7000E4CF01F0E4CF00F0E4CFD9FF120000C0B1
:102B8000E5FF01C0E5FF02C0E5FF03C0E5FFACA221
:102B900076D08DEC22F0006E005005E10A01246B26
:102BA0000A01236B6CD024CA01F0005001268DEC81
:102BB00022F0026E00060250230A1FE1010E005CA3
:102BC000D8A05BD08DEC22F0026E690A03E1D6EC4E
:102BD00020F053D00250720A03E1A2EC24F04DD051
:102BE0000250730A01E049D08B80AB869D8A9D9884
:102BF000AE50AE50AB98AB8840D00250430A05E0CF
:102C00000250420A01E039D001D0008E00C080FAA3
:102C100000500401006F010E0A01816F0A01245166
:102C2000011814E08DEC22F0026E0A018027000EDC
:102C30000A018125006E036A040E032200C0E9FF29
:102C400003C0EAFF02C0EFFF812BE8D7000E0A01A4
:102C50008125006E026A040E02220A01801D036EA5
:102C6000032A00C0E9FF02C0EAFF03C0EFFF0A0128
:102C7000812B81CA7EFA0401886B01C024FAE4CF5B
:102C800003F0E4CF02F0E4CF01F0E4CF00F0120053
:102C9000D9CFE5FFE1CFD9FF00C0E5FF01C0E5FFD7
:102CA00002C0E5FF03C0E5FF04C0E5FF05C0E5FF86
:102CB00006C0E5FF07C0E5FF020EDBCF00F0030E04
:102CC000DBCF01F0040EDBCF02F0050EDBCF03F00B
:102CD00002C006F00650046E800A33E100C0E9FF2E
:102CE00001C0F3FF025004EC23F0056EF3CF06F0B1
:102CF000F4CF07F003C0E5FF05C0E9FF06C0F3FF0E
:102D00000750FAEC24F000C0E9FF01C0F3FF0250C5
:102D100004EC23F0056EF3CF06F0F4CF07F0052A9C
:102D200002E3064A072A05C0E5FF06C0F4FF07C014
:102D3000F6FF00C0E9FF01C0F3FF025085EC24F06C
:102D40001DD004AA1BD0047A045004E103505BECAC
:102D500025F014D00450010A04E103506EEC25F074
:102D60000DD004500F0A04E1035074EC20F006D09B
:102D700004500E0A03E103506BEC25F0E4CF07F09A
:102D8000E4CF06F0E4CF05F0E4CF04F0E4CF03F0A5
:102D9000E4CF02F0E4CF01F0E4CF00F0E4CFD9FFBC
:102DA000120000C0E5FF01C0E5FF02C0E5FF03C05F
:102DB000E5FF04C0E5FF006A770E0024016E026A99
:102DC0000A0E022201C0E9FF02C0EAFFEF6A002AF0
:102DD000020E005CF1E3006A0050020DF450026E36
:102DE000F3CF01F0E00E0124036E000E0220046E0A
:102DF00003C0E9FF04C0EAFFEE6AEF6A390E01245E
:102E0000036E040E0220046E03C0E9FF04C0EAFF53
:102E1000EE6AEF6A590E0124036E040E0220046E5E
:102E200003C0E9FF04C0EAFFEE6AEF6A930E0124D3
:102E3000036E040E0220046E03C0E9FF04C0EAFF23
:102E4000EE6AEF6AB30E0126040E022201C0E9FF0A
:102E500002C0EAFFEE687F0EEF6E230E0024016EC3
:102E6000026A0F0E022201C0E9FF02C0EAFFEF680A
:102E7000002A100E005CD8A0AFD7AF0EC06EC16A9A
:102E8000010EC26EC282E4CF04F0E4CF03F0E4CFBF
:102E900002F0E4CF01F0E4CF00F012004320412023
:102EA00025642025640A0000D9CFE5FFE1CFD9FFD2
:102EB00000C0E5FF01C0E5FF02C0E5FF03C0E5FF7C
:102EC00004C0E5FF05C0E5FF06C0E5FF07C0E5FF5C
:102ED000020EDBCF00F0030EDBCF01F0040EDBCFE0
:102EE00002F0050EDBCF03F024CA25FA0A012351B4
:102EF0000A01255F250703C004F0056A030E0426B6
:102F0000D8B0052A25CA06F0076A0750800FF36E6D
:102F10000550800FF35C02E10450065C02E2E868B1
:102F20002BD0020E035C02E2E86A26D003060350AF
:102F3000E56E21EC1FF0E652046A0350045C14E2D3
:102F400004500024056EE86A0120066EE86A02203B
:102F500005C0E9FF06C0F3FF53EC24F0042AE56E38
:102F600021EC1FF0E652E9D724CA25FA0A012351C1
:102F70000A01255F2507E86AE4CF07F0E4CF06F0F1
:102F8000E4CF05F0E4CF04F0E4CF03F0E4CF02F0A7
:102F9000E4CF01F0E4CF00F0E4CFD9FF1200D9CFA5
:102FA000E5FFE1CFD9FF00C0E5FF01C0E5FF02C0AA
:102FB000E5FF03C0E5FF04C0E5FF05C0E5FF020E25
:102FC000DBCF00F0030EDBCF01F0040EDBCF02F00D
:102FD0000050020DF450036EF3CF00F0390E0024C0
:102FE000046E040E0320056E04C0E9FF05C0EAFF6D
:102FF00001C0EEFF02C0EFFF590E0024046E040E64
:103000000320056E04C0E9FF05C0EAFFEECF04F01F
:10301000EFCF05F00150045C016E02500558026EBE
:10302000D30E0026040E032200C0E9FF03C0EAFF0E
:1030300001C0EEFF02C0EFFFD88002AED89004E3DB
:10304000021E016CD8B4022A0250800F800F02E1E8
:10305000030E015C02E2016A026A0150021007E1FC
:1030600000C0E9FF03C0EAFF000EEE6AEF6AE4CF9A
:1030700005F0E4CF04F0E4CF03F0E4CF02F0E4CFB6
:1030800001F0E4CF00F0E4CFD9FF1200D9CFE5FF83
:10309000E1CFD9FF00C0E5FF01C0E5FF02C0E5FFB9
:1030A00003C0E5FF04C0E5FF05C0E5FF06C0E5FF7E
:1030B000020EDBCF00F0030EDBCF01F0040EDBCFFE
:1030C00002F0050EDBCF03F0D88001AED890046A81
:1030D0000436045007E0011C066E001C056E054A0C
:1030E000062A04D000C005F001C006F0D88003AE67
:1030F000D89007E3031C016E021C006E004A012AEF
:1031000004D002C000F003C001F00150E56E005091
:10311000E56E0650E56E0550E56E4DEC1AF0006E5A
:10312000F3CF01F0040EE12604500AE0011C036E07
:10313000001C026E024A032A03C0F3FF025003D0B0
:1031400001C0F3FF0050E4CF06F0E4CF05F0E4CF78
:1031500004F0E4CF03F0E4CF02F0E4CF01F0E4CFD9
:1031600000F0E4CFD9FF1200D9CFE5FFE1CFD9FFBE
:1031700000C0E5FF01C0E5FF02C0E5FF03C0E5FFB9
:1031800004C0E5FF05C0E5FF020EDBCF00F0030E33
:10319000DBCF01F0040EDBCF02F0050EDBCF03F036
:1031A00071CA04F072CA05F00A01713F01D0722B96
:1031B0000350E56E0450E56E49EC22F0E652E6520B
:1031C00071CA04F072CA05F00A01713F01D0722B76
:1031D0000250056EE56E0450E56E49EC22F0E652B1
:1031E000E65271CA04F072CA05F00A01713F01D0BB
:1031F000722B0150056EE56E0450E56E49EC22F02D
:10320000E652E65271CA04F072CA05F00A01713F33
:1032100001D0722B0050E56E0450E56E49EC22F0AF
:10322000E652E652E4CF05F0E4CF04F0E4CF03F039
:10323000E4CF02F0E4CF01F0E4CF00F0E4CFD9FF17
:103240001200D9CFE5FFE1CFD9FF00C0E5FF01C0F3
:10325000E5FF02C0E5FF03C0E5FF04C0E5FF05C0D0
:10326000E5FF06C0E5FF020EDBCF00F0030EDBCF6B
:1032700001F0040EDBCF02F00401375119E11BEC21
:1032800014F0036EF3CF04F0F4CF05F0E9CF06F0AD
:1032900003C0E5FF04C0F4FF05C0F6FF06C0F7FF5A
:1032A00000C0E9FF01C0F3FF025064EC24F01ED01F
:1032B00004013751010A1AE100C0E9FF01C0F3FF20
:1032C00002506DEC22F0006EF3CF01F0F4CF02F06B
:1032D000E9CF03F00350E56E0250E56E0150E56E54
:1032E0000050E56EB4EC18F0040EE126E4CF06F0D1
:1032F000E4CF05F0E4CF04F0E4CF03F0E4CF02F034
:10330000E4CF01F0E4CF00F0E4CFD9FF1200D9CF31
:10331000E5FFE1CFD9FF00C0E5FF01C0E5FF02C036
:10332000E5FF03C0E5FF04C0E5FF05C0E5FF06C0FB
:10333000E5FF020EDBCF00F0030EDBCF01F000381B
:10334000E8441F0B026E036A770E02260A0E032260
:1033500002C0E9FF03C0EAFFEFCF04F0070E00143C
:10336000056E010E066E055005E0E86CD890063635
:10337000010FFDE30650041202C0E9FF03C0EAFF9B
:1033800004C0EFFF3F0E0024026E036A0A0E032200
:1033900002C0E9FF03C0EAFF01C0EFFF016A230E8C
:1033A00000260F0E012200C0E9FF01C0EAFFFF0E58
:1033B000EF68E4CF06F0E4CF05F0E4CF04F0E4CF0B
:1033C00003F0E4CF02F0E4CF01F0E4CF00F0E4CF6B
:1033D000D9FF1200D9CFE5FFE1CFD9FF00C0E5FF4B
:1033E00001C0E5FF02C0E5FF03C0E5FF04C0E5FF43
:1033F00005C0E5FF06C0E5FF020EDBCF00F0030EBF
:10340000DBCF01F0040EDBCF02F0050EDBCF03F0C3
:10341000060EDBCF04F0070EDBCF05F0080EDBCF86
:1034200006F0D88003AED89015E306500A0A12E1E0
:1034300004C0E9FF05C0EAFF2D0EEF6E044A052A1D
:10344000031E021E011E006C05E1012A03E1022A8F
:10345000D8B4032A0650E56E0550E56E0450E56EBB
:103460000350E56E0250E56E0150E56E0050E56ECA
:10347000E0EC0EF0070EE126E4CF06F0E4CF05F015
:10348000E4CF04F0E4CF03F0E4CF02F0E4CF01F0A6
:10349000E4CF00F0E4CFD9FF1200D9CFE5FFE1CFB0
:1034A000D9FF00C0E5FF01C0E5FF02C0E5FF03C092
:1034B000E5FF04C0E5FF05C0E5FF06C0E5FF020E1D
:1034C000DBCF00F0030EDBCF01F0040EDBCF02F008
:1034D000050EDBCF03F0046A056A0350800BE84455
:1034E000066E065011E10250022603360350015CBD
:1034F00002E10250005C04E2D8900332023204D0B0
:10350000052A05C004F0E9D70350015C02E102502E
:10351000005C04E30250005E0350015AD89003326D
:10352000023204C005F004060550EEE101C0F3FFCD
:103530000050E4CF06F0E4CF05F0E4CF04F0E4CF90
:1035400003F0E4CF02F0E4CF01F0E4CF00F0E4CFE9
:10355000D9FF1200D9CFE5FFE1CFD9FF00C0E5FFC9
:1035600001C0E5FF02C0E5FF03C0E5FF020EDBCFAF
:1035700000F0030EDBCF01F0040EDBCF02F000C041
:10358000E9FF01C0F3FF025053EC24F0036E035037
:1035900029E0C6A610D00350E56E51EC23F0036E6F
:1035A000E652035002E0FD0E1ED01BEC24F0C5AC29
:1035B00014D0FE0E18D09E9600C0E9FF01C0F3FFA4
:1035C000025053EC24F0C96EC6889EA6FED7C7B43D
:1035D00004D0C7B002D0FE0E06D0002AD0E3014AC4
:1035E000022ACDD7E86AE4CF03F0E4CF02F0E4CFBB
:1035F00001F0E4CF00F0E4CFD9FF120000C0E5FFF6
:1036000001C0E5FF02C0E5FF03C0E5FF7DCA00F091
:10361000016A88CA02F0036A0250005E0350015A30
:10362000E56A800EE56E0150E56E0050E56E46ECF1
:1036300018F0006E040EE126000688CA01F0430E61
:1036400074EC20F0200E74EC20F0005020E0600EAE
:103650000124026E036A000E032202C0E9FF03C0C8
:10366000EAFFEFCF02F0E56A0250E56E000EE56E6C
:10367000490EE56E5C0EE56E28EC1EF0050EE126A7
:10368000012A0150800A01E1016A0006DED7E4CF79
:1036900003F0E4CF02F0E4CF01F0E4CF00F0120039
:1036A000D9CFE5FFE1CFD9FF00C0E5FF01C0E5FFBD
:1036B00002C0E5FF03C0E5FF020EDBCF00F0030E02
:1036C000DBCF01F0040EDBCF02F0050EDBCF03F001
:1036D000035003E11D0E036E02D0530E036E03C0B0
:1036E000E5FF00C0E9FF01C0F3FF0250FAEC24F04F
:1036F000E56A2D0EE56E0350E56E06EC21F0030E33
:10370000E126100EE56E2D0EE56E0350E56E06EC1B
:1037100021F0030EE126080EE56E2D0EE56E035036
:10372000E56E06EC21F0030EE126E4CF03F0E4CFD2
:1037300002F0E4CF01F0E4CF00F0E4CFD9FF1200B3
:10374000D9CFE5FFE1CFD9FF00C0E5FF01C0E5FF1C
:1037500002C0E5FF03C0E5FF04C0E5FF020EDBCFBA
:1037600000F0030EDBCF01F0040EDBCF02F004010A
:10377000375111E140EC20F0036EF3CF04F003C0A9
:10378000E5FF04C0F4FF00C0E9FF01C0F3FF0250F1
:10379000CCEC24F016D004013751010A12E100C02C
:1037A000E9FF01C0F3FF0250DBEC23F0006EF3CF22
:1037B00001F00150E56E0050E56EE4EC1EF0E652BB
:1037C000E652E4CF04F0E4CF03F0E4CF02F0E4CF1C
:1037D00001F0E4CF00F0E4CFD9FF1200D9CFE5FF2C
:1037E000E1CFD9FF00C0E5FF01C0E5FF02C0E5FF62
:1037F00003C0E5FF04C0E5FF020EDBCF00F0003898
:10380000E8441F0B016E026A750E01260A0E0222A1
:1038100001C0E9FF02C0EAFFEFCF01F0070E00167A
:10382000010E026E000E036E005006E0E86CD890A8
:1038300002360336010FFCE3046A015002160450FD
:10384000031602500310D880E866D890026A023648
:103850000250D880E866D890026A02360250E4CF5F
:1038600004F0E4CF03F0E4CF02F0E4CF01F0E4CFC2
:1038700000F0E4CFD9FF12006E0EF66E4A0EF76E1E
:10388000000EF86E0900F550056E0900F550066E41
:1038900004E1056702D089EF1CF00900F550006EC5
:1038A0000900F550016E0900F550026E090009008B
:1038B000F550E96E0900F550EA6E090009000900AB
:1038C000F550036E0900F550046E09000900F6CFAB
:1038D00007F0F7CF08F0F8CF09F000C0F6FF01C0FD
:1038E000F7FF02C0F8FF035002E1045007E00900AF
:1038F000F550EE6E0306F8E20406F9D707C0F6FFAE
:1039000008C0F7FF09C0F8FF050601E2060648EF08
:103910001CF01200D9CFE5FFE1CFD9FF00C0E5FFD1
:1039200001C0E5FF02C0E5FF03C0E5FF04C0E5FFFD
:1039300005C0E5FF020EDBCF00F00050010A22E1D6
:10394000016A0150020DF450036EF3CF02F0930EA2
:103950000224046E040E0320056E04C0E9FF05C0B6
:10396000EAFFEE687F0EEF6EB30E0226040E03220E
:1039700002C0E9FF03C0EAFFEE6AEF6A012A100EF7
:10398000015CDFE300C02AFAE4CF05F0E4CF04F0E5
:10399000E4CF03F0E4CF02F0E4CF01F0E4CF00F095
:1039A000E4CFD9FF1200D9CFE5FFE1CFD9FF00C0A6
:1039B000E5FF01C0E5FF02C0E5FF03C0E5FF04C06D
:1039C000E5FF020EDBCF00F0030EDBCF01F0040EAB
:1039D000DBCF02F0036A02C004F0020604501DE0CF
:1039E000B0EC24F0046E00C0E9FF01C0EAFF04C09F
:1039F000EFFF004A012A03C004F0C5A6ECD7A1A638
:103A000002D0E8680BD0042A04C003F00250F5E0AD
:103A100028EC25F0C5B8FED7F0D70350E4CF04F06A
:103A2000E4CF03F0E4CF02F0E4CF01F0E4CF00F004
:103A3000E4CFD9FF120000C0E5FF01C0E5FF02C0DE
:103A4000E5FF03C0E5FF04C0E5FF006A730E002434
:103A5000016E026A0A0E0222750E0024036E046AC9
:103A60000A0E042203C0E9FF04C0EAFF010EEF6E54
:103A700001C0E9FF02C0EAFFEF6E002A020E005CFF
:103A8000E5E3006A230E0024016E026A040E02229E
:103A900001C0E9FF02C0EAFFEF68002A100E005CD7
:103AA000F1E3E4CF04F0E4CF03F0E4CF02F0E4CF9D
:103AB00001F0E4CF00F0120043207320256420259C
:103AC000640A0000D9CFE5FFE1CFD9FF00C0E5FFD0
:103AD00001C0E5FF02C0E5FF03C0E5FF04C0E5FF4C
:103AE00005C0E5FF020EDBCF00F0030EDBCF01F0D7
:103AF000040EDBCF02F0050EDBCF03F0060EDBCFAA
:103B000004F0056A230E0026040E0522800E015ED5
:103B1000070E01160138F00B026E070E0416045052
:103B2000022600C0E9FF05C0EAFF02C0EFFFE4CFB4
:103B300005F0E4CF04F0E4CF03F0E4CF02F0E4CFEB
:103B400001F0E4CF00F0E4CFD9FF120000C0E5FFA0
:103B500001C0E5FF02C0E5FF5FEC21F0006E5FEC05
:103B600021F0016E0050026ED00E0224006E0A0E8B
:103B7000005C05E30050026EF90E0224006E015055
:103B8000026ED00E0224016E0A0E015C05E30150A4
:103B9000026EF90E0224016E080E005C12E2100E95
:103BA000015CD8B00ED00038F00B0124006E98EC08
:103BB0001FF0016E015005E10050E56E39EC23F075
:103BC000E652E4CF02F0E4CF01F0E4CF00F01200BF
:103BD000D9CFE5FFE1CFD9FF00C0E5FF01C0E5FF88
:103BE00002C0E5FF03C0E5FF04C0E5FF020EDBCF26
:103BF00000F00038E8441F0B016E026A770E0126C0
:103C00000A0E022201C0E9FF02C0EAFFEFCF03F073
:103C1000070E0016010E046E005005E0E86CD89007
:103C20000436010FFDE3041C031601C0E9FF02C0C6
:103C3000EAFF03C0EFFFE4CF04F0E4CF03F0E4CFEA
:103C400002F0E4CF01F0E4CF00F0E4CFD9FF12009E
:103C5000D9CFE5FFE1CFD9FF00C0E5FF01C0E5FF07
:103C600002C0E5FF020ED924006E000EDA20016EBC
:103C7000800E026E030E0026000E01220222025068
:103C8000E56E0150E56E0050E56E040EDBCFE5FFFA
:103C9000030EDBCFE5FF020EDBCFE5FF0A016A5121
:103CA000E56E6951E56E6851E56E0EEC00F0006E50
:103CB000F3CF01F0090EE12601C0F3FF0050E4CF7D
:103CC00002F0E4CF01F0E4CF00F0E4CFD9FF12001E
:103CD000D9CFE5FFE1CFD9FF00C0E5FF01C0E5FF87
:103CE00002C0E5FF03C0E5FF020EDBCF00F0030ECC
:103CF000DBCF01F0040EDBCF02F0040137510DE100
:103D0000AFEC23F0036E03C0E5FF00C0E9FF01C084
:103D1000F3FF0250FAEC24F00FD004013751010AEE
:103D20000BE100C0E9FF01C0F3FF025053EC24F0A7
:103D3000E56EFEEC21F0E652E4CF03F0E4CF02F0B2
:103D4000E4CF01F0E4CF00F0E4CFD9FF120000C0CF
:103D5000E5FF01C0E5FF5FEC21F0006E4C0A08E1D1
:103D60005FEC21F0300A02E08B8229D08B9227D0C1
:103D70000050450A24E1000EE56E100EE56EFE0EC1
:103D8000E56E28EC1EF0030EE12665EC25F0006ED2
:103D900000C001F0000601500FE05FEC21F0E56A81
:103DA000E56E000EE56E110EE56E000EE56E28EC78
:103DB0001EF0050EE126ECD70A0E74EC20F0E4CFDD
:103DC00001F0E4CF00F01200D9CFE5FFE1CFD9FF39
:103DD00000C0E5FF01C0E5FF02C0E5FF03C0E5FF4D
:103DE000020EDBCF00F0030EDBCF01F071CA02F050
:103DF00072CA03F00A01713F01D0722B0150E56EC7
:103E00000250E56E49EC22F0E652E65271CA02F029
:103E100072CA03F00A01713F01D0722B0050E56EA7
:103E20000250E56E49EC22F0E652E652E4CF03F090
:103E3000E4CF02F0E4CF01F0E4CF00F0E4CFD9FF0B
:103E40001200D9CFE5FFE1CFD9FF00C0E5FF01C0E7
:103E5000E5FF02C0E5FF03C0E5FF04C0E5FF020E79
:103E6000DBCF00F023CA01F0026A014A022A24CA09
:103E700003F0046A0150031803E10250041801E042
:103E800001D00ED0000E0A012325016E026A070E32
:103E9000022201C0E9FF02C0EAFF00C0EFFF232BAE
:103EA000E4CF04F0E4CF03F0E4CF02F0E4CF01F07C
:103EB000E4CF00F0E4CFD9FF1200D9CFE5FFE1CF86
:103EC000D9FF00C0E5FF01C0E5FF02C0E5FF03C068
:103ED000E5FF020EDBCF00F0016A88CA02F0036A38
:103EE0000250002603500122E56A800EE56E015063
:103EF000E56E0050E56E46EC18F0006EF3CF01F071
:103F0000040EE126600E0026000E012200C0E9FF2B
:103F100001C0EAFFEFCF00F00050E4CF03F0E4CFA0
:103F200002F0E4CF01F0E4CF00F0E4CFD9FF1200BB
:103F300000C0E5FF01C0E5FF02C0E5FF010E006E15
:103F40005FEC21F0016E01C002F0015023E000504F
:103F5000E56E94EC24F0016EE652015010E10A0E79
:103F6000005C0BE20A0E006EE56E94EC24F0016E2C
:103F7000E652015004E1E8680ED0E8680CD0015028
:103F8000021802E0E86807D0002A1B0E005CD8E3A4
:103F9000E86801D0E86AE4CF02F0E4CF01F0E4CFB2
:103FA00000F01200F3CFE5FFF4CFE5FFE9CFE5FF26
:103FB000EACFE5FFFACFE5FFFBCFE5FF0A0121518C
:103FC0000F01356F0A0122510F01366FD650336F42
:103FD000D750346FF2A411D00A01213F01D0222B17
:103FE000F2940A0121510F01356F0A0122510F018C
:103FF000366FD650336FD750346FE4CFFBFFE4CF2A
:10400000FAFFE4CFEAFFE4CFE9FFE4CFF4FFE4CF27
:10401000F3FF110000C0E5FF01C0E5FF5FEC21F0F8
:104020000A0A29E165EC25F0016E030E015C23E329
:104030005FEC21F0006E010E0016005002E0898056
:1040400001D08990005002E0898201D0899200500D
:1040500002E0898401D08994005002E0898801D06F
:104060008998005002E0898601D08996005002E0CC
:10407000898A01D0899AE4CF01F0E4CF00F01200E0
:1040800000C0E5FF01C0E5FF02C0E5FF03C0E5FF9A
:1040900071CA00F072CA01F00A01713F01D0722B9F
:1040A0000050E56E94EC24F0E652036E026A71CA89
:1040B00000F072CA01F00A01713F01D0722B00506A
:1040C000E56E94EC24F0E652016A021201500312EC
:1040D00003C0F3FF0250E4CF03F0E4CF02F0E4CFDB
:1040E00001F0E4CF00F0120000C0E5FF01C0E5FFE1
:1040F00002C0E5FF006E000E0A012825016E026A6B
:104100000F0E022201C0E9FF02C0EAFF00C0EFFF6C
:10411000220E285D01E2282B00500A0A0FE10A0155
:104120002851E56E800EE56E0F0EE56E000EE56E11
:1041300054EC17F0040EE1260A01286BE4CF02F0DC
:10414000E4CF01F0E4CF00F01200D9CFE5FFE1CFDA
:10415000D9FF00C0E5FF01C0E5FF02C0E5FF020E88
:10416000DBCF00F0030EDBCF01F04AEC25F000447A
:10417000FE0B026E0150D880E866D890006A0036C7
:104180000050D880E866D890006A003600500212CD
:104190000250E56E51EC23F0E652E4CF02F0E4CF9A
:1041A00001F0E4CF00F0E4CFD9FF12000A01236B45
:1041B0000A01246B0A0125698B809490B06A3F0E36
:1041C000AF6EB886AC8AAC84AC8CAC90AB8CAB8E4A
:1041D0000A017F6B0A01796B0A017C6B0A017D6B16
:1041E0000A017E6B000EE56A94EC24F00A01276F49
:1041F000E6529F989F9A010E0A01266F0A01686B8A
:10420000696B2F0E6A6FA2EC24F01200D9CFE5FF84
:10421000E1CFD9FF00C0E5FF01C0E5FF02C0E5FF27
:10422000020EDBCF00F0030EDBCF01F0040EDBCF7C
:1042300002F0E56A0050E56EA5EC20F0E652E65289
:104240000150E56E51EC23F0E6520250E56E51EC60
:1042500023F0E6523EEC25F0E4CF02F0E4CF01F08B
:10426000E4CF00F0E4CFD9FF12000A01215104018C
:104270008C6F0A01225104018D6FD6508A6FD7507E
:104280008B6F8C510A01211905E104018D510A013E
:1042900022190CE00A01215104018C6F0A012251FC
:1042A00004018D6FD6508A6FD7508B6F8DC4E9FF94
:1042B0008CC4F4FF8BC4F3FF04018A51120000C0C8
:1042C000E5FF01C0E5FF0A017D510A01861905E0FD
:1042D0000A017D510A017C1902E1E86A15D07DCA04
:1042E00000F00A017D2B016A600E0026000E0122FB
:1042F00000C0E9FF01C0EAFFEFCF00F07D51800A66
:1043000002E10A017D6B0050E4CF01F0E4CF00F040
:10431000120000C0E5FF5FEC25F00401896B806BA3
:104320008983006A89B3002A0050010BE844F46EC7
:104330008051FD0BF410806FD58ED59CD59AD58811
:10434000D596D594D582D580F28AF184D08EF28E1E
:10435000F28CBA80FF0EBB68BA84E4CF00F0120082
:10436000D9CFE5FFE1CFD9FF00C0E5FF01C0E5FFF0
:10437000020EDBCF00F00050020DF450016EF3CFBF
:1043800000F0D30E0026040E012200C0E9FF01C098
:10439000EAFFEECF00F0EFCF01F001C0F3FF0050D5
:1043A000E4CF01F0E4CF00F0E4CFD9FF1200D9CF81
:1043B000E5FFE1CFD9FF00C0E5FF01C0E5FF020E38
:1043C000DBCF00F00050020DF450016EF3CF00F08F
:1043D000E00E0026000E012200C0E9FF01C0EAFF46
:1043E000EECF00F0EFCF01F001C0F3FF0050E4CFBB
:1043F00001F0E4CF00F0E4CFD9FF1200D9CFE5FF00
:10440000E1CFD9FF00C0E5FF01C0E5FF02C0E5FF35
:10441000020EDBCF00F071CA01F072CA02F00A018D
:10442000713F01D0722B0050E56E0150E56E49ECF2
:1044300022F0E652E652E4CF02F0E4CF01F0E4CFFE
:1044400000F0E4CFD9FF1200D8CFE5FFE0CFE5FFC1
:10445000E56EF3CFE5FFF4CFE5FFE9CFE5FFEACF67
:10446000E5FFFACFE5FFFBCFE5FFF7EC0CF0E4CF7B
:10447000FBFFE4CFFAFFE4CFEAFFE4CFE9FFE4CFAC
:10448000F4FFE4CFF3FFE450E4CFE0FFE4CFD8FF44
:104490001000D9CFE5FFE1CFD9FF00C0E5FF020E44
:1044A000DBCF00F0030EDBCFA8FF00C0A9FFA69E64
:1044B000A69CA684F29EF29C550EA76EAA0EA76E2D
:1044C000A682A6A202D00000FCD7A694F28EF28C9F
:1044D000E4CF00F0E4CFD9FF1200E8AE0AD0F3CF6A
:1044E000EAFFEE50EECFF3FFEECFF4FFEECFE9FFA1
:1044F0001200E8BC7AEF25F0E9CFF6FFF3CFF7FF23
:10450000F86E0900F5500900F5CFF3FF0900F5CF6B
:10451000F4FF0900F5CFE9FF120000C0E5FF01C07C
:10452000E5FF0A0123510A01241902E1E86A0FD0CC
:10453000000E0A012425006E016A070E012200C048
:10454000E9FF01C0EAFFEFCF00F0242B0050E4CFD9
:1045500001F0E4CF00F01200F2CFEAFFF29EA69E37
:10456000A69CA684E9CFA9FFF3CFAAFFE4CFA8FFBA
:104570000FEC25F0F4CFA8FF0FEC25F0F6CFA8FF45
:104580000FEC25F0F7CFA8FF0FEC25F0A694EABEBC
:10459000F28E1200D9CFE5FFE1CFD9FF00C0E5FFD1
:1045A00001C0E5FF020EDBCF00F0016A230E0026FA
:1045B000040E012200C0E9FF01C0EAFFFF0EEF6810
:1045C000E4CF01F0E4CF00F0E4CFD9FF1200F2CF46
:1045D000F6FFF29EA69EA69CE9CFA9FFF3CFAAFF05
:1045E000A680A850A94AAA2AA680A8CFF3FFA94A64
:1045F000AA2AA680A8CFF4FFA94AAA2AA680A8CFF3
:10460000EAFFF6BEF28E1200E8AE08D0F3CFEAFF62
:10461000EE50EECFF3FFEECFF4FF1200E8BC7CEFDC
:1046200025F0E9CFF6FFF3CFF7FFF86E0900F5505C
:104630000900F5CFF3FF0900F5CFF4FF1200F2CF28
:10464000EAFFF29EA69EA69CA684E9CFA9FFF3CF1F
:10465000AAFFE4CFA8FF0FEC25F0F4CFA8FF0FECE2
:1046600025F0F6CFA8FF0FEC25F0A694EABEF28E57
:104670001200D9CFE5FFE1CFD9FF00C0E5FF020E60
:10468000DBCF00F000C027FA0050E56E000EE56AAF
:1046900049EC22F0E652E652E4CF00F0E4CFD9FF35
:1046A0001200D9CFE5FFE1CFD9FF00C0E5FF020E30
:1046B000DBCF00F0C69E00C0C9FFC6AE02D0E868DE
:1046C00003D01BEC24F0E86AE4CF00F0E4CFD9FF7C
:1046D0001200F2CFF6FFF29EA69EA69CE9CFA9FF9C
:1046E000F3CFAAFFA680A850A94AAA2AA680A8CFDD
:1046F000F3FFA94AAA2AA680A8CFF4FFF6BEF28E3D
:10470000120000C0E5FF01C0E5FF600E0A017D2533
:10471000006E016A000E012200C0E9FF01C0EAFF3D
:10472000EFCF00F00050E4CF01F0E4CF00F0120032
:10473000D9CFE5FFE1CFD9FF00C0E5FF020EDBCF07
:1047400000F0610E005C05E37B0E005C02E2010EEE
:1047500001D0E86AE4CF00F0E4CFD9FF120000C036
:10476000E5FF01C0E5FF71CA00F072CA01F00A015D
:10477000713F01D0722B0050E56E94EC24F0E652AC
:10478000E4CF01F0E4CF00F01200D9CFE5FFE1CF94
:10479000D9FF00C0E5FF020EDBCF00F000C026FA13
:1047A000005004E1A2EC24F09D9A9D98E4CF00F023
:1047B000E4CFD9FF1200E8AE06D0F3CFEAFFEE5007
:1047C000EECFF3FF1200E8BC78EF25F0E9CFF6FF5B
:1047D000F3CFF7FFF86E0900F5500900F5CFF3FFAE
:1047E0001200F2CFEAFFF29EA69EA69CA684E9CF15
:1047F000A9FFF3CFAAFFE4CFA8FF0FEC25F0F4CF79
:10480000A8FF0FEC25F0A694EABEF28E120018EE77
:10481000FFF028EEFFF0F86AA68EA69CE9680E0E5F
:10482000EA6E0068000EED6A0050FDE13CEC1CF001
:1048300006EC00F0FFD700C0E5FF01C0E5FF1F0E4A
:10484000C514006E016AC7B4012A0150001200505D
:10485000F6E1E4CF01F0E4CF00F01200F2CFF6FF72
:10486000F29EA69EA69CE9CFA9FFF3CFAAFFA68041
:10487000A850A94AAA2AA680A8CFF3FFF6BEF28EB6
:104880001200F2CFEAFFF29EA69EA69CA684E9CF74
:10489000A9FFF3CFAAFFE4CFA8FF0FEC25F0A69461
:1048A000EABEF28E1200E8AE04D0F3CFEAFFEE507B
:1048B0001200E8BC76EF25F0E9CFF6FFF3CFF7FF63
:1048C000F86E0900F5501200E8AE0BD0F3CFEAFF06
:1048D000E4CFEEFFF4CFEEFFF6CFEEFFF7CFEEFF23
:1048E0001200E8BC74EF25F012000000000000FF89
:1048F000000000000007000200000042000000006D
:1049000000000000000000000000E8AE09D0F3CF76
:10491000EAFFE4CFEEFFF4CFEEFFF6CFEEFF12009A
:10492000E8BC7EEF25F01200D9CFE5FFE1CFD9FF3B
:10493000020EDBCFA9FFA69CA69EA680A850E4CFBE
:10494000D9FF1200ACA2FED78B80AE500000AE5053
:10495000AB98AB88AB869D8A9D9812002564200099
:1049600000C0E5FF1BEC24F0C58650EC25F0006E7E
:104970000050FBE0C950E4CF00F01200F2CFF6FF88
:10498000F29EA69EA69CE9CFA9FFF3CFAAFFA68020
:10499000A850F6BEF28E1200E8AE07D0F3CFEAFFC1
:1049A000E4CFEEFFF4CFEEFF1200E8BC72EF25F08B
:1049B0001200700ED36E9B8CFF0E92689368946801
:1049C0009668626AF19E120000C0E5FF98EC1FF045
:1049D000006E005001E1FF00E4CF00F012000F0173
:1049E000456B900E0F01446F030E0F01436F0F01D3
:1049F000458F1200E8AE05D0F3CFEAFFE4CFEEFF1B
:104A00001200E8BC70EF25F01200D9CFE5FFE1CF2E
:104A1000D9FF020EDBCF2DFAE4CFD9FF1200550EDD
:104A2000A76EAA0EA76EA682A6B2FED7A94AAA2A88
:104A3000010E0401376F1C0E0A01716F726B1200B8
:104A40001BEC24F09E96C58AC5889EA6FED7120050
:104A50001BEC24F09E96C59AC5889EA6FED7120030
:104A60000401376B1C0E0A01716F726B120001009A
:104A7000EA480000200A00001F0000001BEC24F0A0
:104A8000C584C5B4FED712001BEC24F0C582C5B2A4
:104A9000FED712001BEC24F0C580C5B0FED7120073
:104AA000C7A002D0010E01D0E86A120089EC21F003
:104AB000D6EC20F01200ACA2FED7AD6E1200D9ECFD
:104AC00024F012000A017D5112000A0187511200E0
:104AD0000A0126511200E8CF7FFF1200C96E1200B2
:104AE00041EF24F0F1EF23F0ACEF22F0BEEF24F021
:104AF0002EEF24F0E7EF22F069EF23F01FEF23F011
:00000001FF
