:020000040000FA
:10000000D0EF24F0C69A1200CFEF1FF054EC06F0A8
:10001000C5EC11F0FDD71200EDEF22F0D9CFE5FFCE
:10002000E1CFD9FF00C0E5FF01C0E5FF02C0E5FF59
:1000300003C0E5FF04C0E5FF05C0E5FF06C0E5FF1E
:1000400007C0E5FF08C0E5FF09C0E5FF0AC0E5FFFE
:100050000BC0E5FF0CC0E5FF0DC0E5FF0EC0E5FFDE
:100060000FC0E5FF10C0E5FF11C0E5FF12C0E5FFBE
:1000700013C0E5FF14C0E5FF15C0E5FF16C0E5FF9E
:1000800017C0E5FF18C0E5FF19C0E5FF1AC0E5FF7E
:100090001BC0E5FF1CC0E5FF1DC0E5FF1EC0E5FF5E
:1000A000020EDBCF00F0030EDBCF01F0040EDBCF3E
:1000B00002F0050EDBCF03F0060EDBCF04F0070ED7
:1000C000DBCF05F0080EDBCF06F0090EDBCF07F023
:1000D0000A0EDBCF08F0096A0A6A02C00DF00D5063
:1000E000800A0DE102500301706F01506F6F0050E4
:1000F0006E6F030E016E6E0E006E800E026E03C0F8
:10010000E9FF04C0F3FF05501AEC25F00B6E0B500D
:10011000D8B4C4EF03F00B50250A02E0ABEF03F0B4
:100120000C6A0D6A0E6A0F6A106A0A0E116E126A64
:10013000136A146A200E156E1668176A2B0E186E55
:10014000032A02E3044A052A03C0E9FF04C0F3FFBF
:1001500005501AEC25F0196E250A13E11950E56EC9
:100160000250E56E0150E56E0050E56E45EC16F06C
:10017000040EE126094A0A2A032A02E3044A052A50
:10018000BED71950300A06E1300E156E032A02E37D
:10019000044A052A03C0E9FF04C0F3FF05501AEC26
:1001A00025F02D0A06E1010E146E032A02E3044A2B
:1001B000052A03C0E9FF04C0F3FF05501AEC25F03F
:1001C000200A08E1010E176E200E186E032A02E3C2
:1001D000044A052A03C0E9FF04C0F3FF05501AECE6
:1001E00025F02B0A06E1010E176E032A02E3044AEA
:1001F000052A03C0E9FF04C0F3FF05501AEC25F0FF
:10020000196E310E195C2BE33A0E195C28E203C01B
:1002100019F004C01AF005C01BF019C0E9FF1AC09C
:10022000F3FF1B501AEC25F01C6E300E1C5C11E322
:100230003A0E1C5C0EE213500A0DF3CF1DF01D5058
:100240001C26D00E1C24136E192A02E31A4A1B2AFC
:10025000E4D719C003F01AC004F01BC005F003C0B6
:10026000E9FF04C0F3FF05501AEC25F02E0A2DE13A
:10027000032A02E3044A052A166A03C019F004C0DF
:100280001AF005C01BF019C0E9FF1AC0F3FF1B509C
:100290001AEC25F01C6E300E1C5C11E33A0E1C5C4F
:1002A0000EE216500A0DF3CF1DF01D501C26D00E85
:1002B0001C24166E192A02E31A4A1B2AE4D719C015
:1002C00003F01AC004F01BC005F003C0E9FF04C02E
:1002D000F3FF05501AEC25F0196E6C0A07E1010EC8
:1002E0000C6E032A02E3044A052A09D01950680A51
:1002F00006E1010E0E6E032A02E3044A052A03C03A
:10030000E9FF04C0F3FF05501AEC25F0750A06E179
:10031000010E106E032A02E3044A052A03C0E9FF16
:1003200004C0F3FF05501AEC25F0196E730A05E1BD
:10033000010E0D6E200E156E3FD01950780A03E1A4
:10034000100E116E39D01950580A05E1100E116EB9
:10035000010E126E31D01950630A02E1116A2CD0DD
:1003600019506F0A03E1080E116E26D01950660A63
:1003700003E1010E0F6E20D01950640A1DE01950E0
:10038000690A1AE0105005E0FF0E03260422052238
:1003900013D01950E56E0250E56E0150E56E005025
:1003A000E56E45EC16F0040EE126094A0A2A032AF6
:1003B00002E3044A052AA3D60D5021E00650030F9C
:1003C0000D6E000E0720196E000E08201A6E0DC06B
:1003D00006F019C007F01AC008F0FD0E0D26FF0E3A
:1003E00019221A220DC0E9FF19C0F3FF1A50CDECF3
:1003F00023F00D6EF3CF19F0F4CF1AF0FDD00F50AB
:100400000DE0000E1A6E080E196E100E0D6E040E21
:100410000626000E072208221668EED016680C5039
:1004200023E00650040F0C6E000E07200F6E000E26
:1004300008201B6E0CC006F00FC007F01BC008F0B0
:10044000FC0E0C26FF0E0F221B220CC0E9FF0FC072
:10045000F3FF1B5036EC23F00C6EF3CF0FF0F4CF0C
:100460001BF0E9CF1CF067D00E502FE00650020FB2
:100470000E6E000E07201D6E000E08201E6E0EC0B0
:1004800006F01DC007F01EC008F0FE0E0E26FF0E7F
:100490001D221E220EC0E9FF1DC0F3FF1E50A4EC5A
:1004A00024F00E6E0EC00CF00F6A1B6A1C6A11500D
:1004B0000A0A03E11050D8B43ED00C500E6E0EC0A4
:1004C0000CF00F6A1B6A1C6A36D00650020F0E6EC3
:1004D000000E07201D6E000E08201E6E0EC006F0D6
:1004E0001DC007F01EC008F0FE0E0E26FF0E1D22D6
:1004F0001E220EC0E9FF1DC0F3FF1E50A4EC24F025
:100500000E6EF3CF1DF00EC00CF01DC00FF0E86AA8
:100510001DBEFF0E1B6E1C6E11500A0A02E1105028
:100520000AE00C500E6E0F501D6E0EC00CF01DC078
:100530000FF01B6A1C6A040E196EF40E0D6E800E0D
:100540001A6E1150D8B440D0105013E01150E56E1F
:10055000040EE56EF40EE56E1C50E56E1B50E56E64
:100560000F50E56E0C50E56EDDEC0EF0070EE12647
:1005700012D01150E56E040EE56EF40EE56E1C50BF
:10058000E56E1B50E56E0F50E56E0C50E56EE7EC26
:1005900019F0070EE12617502FE00DC0E9FF19C032
:1005A000F3FF1A501AEC25F02D0A26E0FF0E0D2657
:1005B00019221A2218C0E5FF0DC0E9FF19C0F3FF88
:1005C0001A50A2EC25F018D00CC0E5FF0DC0E9FFD1
:1005D00019C0F3FF1A50A2EC25F00D50010F0C6E5C
:1005E000000E19200E6E000E1A20E56A0CC0E9FFFD
:1005F0000EC0F3FFA2EC25F00DC00CF019C00EF0F8
:100600001AC00FF013C010F0105010E00CC0E9FF3A
:100610000EC0F3FF0F501AEC25F0176E175006E0CE
:100620000C2A02E30E4A0F2A1006EED710C013F070
:1006300014501EE109C00CF00AC00EF010C00FF0FB
:100640000F5010E01550E56E0250E56E0150E56E5A
:100650000050E56E45EC16F0040EE1260C4A0E2A19
:100660000F06EED70CC009F00EC00AF00FC013F051
:1006700016C00CF00DC00DF019C00EF01AC00FF02E
:1006800009C010F00AC015F00DC0E9FF0EC0F3FF5D
:100690000F501AEC25F0166E1650D8B43ED00CC090
:1006A00016F0176A161E171E1650171005E00CC01C
:1006B00016F00C06165031E00DC0E9FF0EC0F3FF36
:1006C0000F501AEC25F0116E125010E01150E56E2B
:1006D00061EC24F0166EE652165004E0DF0E1114A1
:1006E000166E02D011C016F016C011F01150E56E52
:1006F0000250E56E0150E56E0050E56E45EC16F0D7
:10070000040EE1260D2A02E30E4A0F2A104A152A8A
:100710001350D8B4B9D71306B7D710C009F015C015
:100720000AF014502BE010C00CF015C00DF013C0EF
:100730000EF00E501FE0200EE56E0250E56E0150E7
:10074000E56E0050E56E45EC16F0040EE1260C4A0D
:100750000D2A0E06EED70B50E56E0250E56E0150E5
:10076000E56E0050E56E45EC16F0040EE126094AF0
:100770000A2A04D00CC009F00DC00AF0032A02E3D3
:10078000044A052A7FEF00F00AC0F3FF0950E4CFC6
:100790001EF0E4CF1DF0E4CF1CF0E4CF1BF0E4CF5B
:1007A0001AF0E4CF19F0E4CF18F0E4CF17F0E4CF5B
:1007B00016F0E4CF15F0E4CF14F0E4CF13F0E4CF5B
:1007C00012F0E4CF11F0E4CF10F0E4CF0FF0E4CF5B
:1007D0000EF0E4CF0DF0E4CF0CF0E4CF0BF0E4CF5B
:1007E0000AF0E4CF09F0E4CF08F0E4CF07F0E4CF5B
:1007F00006F0E4CF05F0E4CF04F0E4CF03F0E4CF5B
:1008000002F0E4CF01F0E4CF00F0E4CFD9FF120012
:100810003C4E4F20464C4F41543E000000C0E5FF87
:1008200001C0E5FF02C0E5FF03C0E5FF04C0E5FF2E
:1008300005C0E5FF06C0E5FF07C0E5FF08C0E5FF0E
:1008400009C0E5FF0AC0E5FF0BC0E5FF0CC0E5FFEE
:10085000006A016A026A040E025CD8B0E8D101C0E5
:1008600003F0012A100E035CD8B0E1D10301302B54
:10087000100E305D01E3306B03013039E8441F0B8B
:10088000036E046A770E0326030E042203C0E9FFF9
:1008900004C0EAFFEFCF03F0070E3015046E010E1F
:1008A000056E000E066E045006E0E86CD890053622
:1008B0000636010FFCE3076A0350051607500616BB
:1008C00005500610D880E866D890056A05360550B0
:1008D000D8A4C1D703013051020DF450046EF3CFF8
:1008E00003F0E00E0324056E000E0420066E05C022
:1008F000E9FF06C0EAFFEECF05F0EFCF06F00301F7
:100900002DA19DD0930E0324076E040E0420086EC3
:1009100007C0E9FF08C0EAFFEECF07F0EFCF08F00D
:100920000650800FF36E0850800FF35C02E1075011
:10093000055C03E2056A066A60D0B30E0326040E66
:10094000042203C0E9FF04C0EAFFEECF03F0EFCFBB
:1009500004F00450800FF36E0650800FF35C02E148
:100960000550035C04E205683F0E066E46D0075052
:10097000055C096E085006580A6EE86A0ABEFF0E4A
:100980000B6EE56E0B50E56E0A50E56E0950E56E94
:10099000E56AE56A400EE56E000EE56AEAEC0BF0EA
:1009A000096EF3CF0AF0F4CF0BF0E9CF0CF0080E8C
:1009B000E1260750035C076E08500458086EE86A89
:1009C00008BEFF0E036EE56E0350E56E0850E56E3F
:1009D0000750E56E0C50E56E0B50E56E0A50E56E63
:1009E0000950E56E88EC13F0036EF3CF04F0080EA7
:1009F000E1260350056E0450066E03012C51800F52
:100A0000F36E0650800FF35C02E105502B5D03E3AB
:100A1000056A066A14D003012B51FF08036E3F0ECE
:100A20002C55046E0650800FF36E0450800FF35C5B
:100A300002E10350055C03E305683F0E066E030107
:100A40003051020DF450046EF3CF03F0590E03261B
:100A5000040E042203C0E9FF04C0EAFFEECF03F056
:100A6000EFCF04F00350055C036E04500658046E8B
:100A7000D88004AED89004E3041E036CD8B4042AD2
:100A8000022A03012C51800FF36E0450800FF35C97
:100A900002E103502B5DD8B0DED603013051020DC8
:100AA000F450086EF3CF07F0590E0726040E082203
:100AB00007C0E9FF08C0EAFF05C0EEFF06C0EFFF70
:100AC00003012DA55AD003013051020DF450086ED8
:100AD000F3CF07F0D30E0724096E040E08200A6E28
:100AE00009C0E9FF0AC0EAFFEECF0BF0EFCF0CF030
:100AF0000B500C10D8B441D0390E0726040E082232
:100B000007C0E9FF08C0EAFFEECF07F0EFCF08F01B
:100B10000750055C036E08500658046E03101CE075
:100B20000450800F800F02E1010E035C076A073654
:100B30000C50800F800F02E1010E0B5C0B6A0B362C
:100B400007500B1809E109C0E9FF0AC0EAFF03C01A
:100B5000EEFF04C0EFFF7FD603013051020DF450C9
:100B6000046EF3CF03F0D30E0326040E042203C059
:100B7000E9FF04C0EAFFEE6AEF6A03012DA343D048
:100B800000500EE100C003F0002A046A310E032673
:100B9000030E042203C0E9FF04C0EAFF420EEF6E19
:100BA00000C003F0002A046A310E0326030E04225B
:100BB000640E03013025076E03C0E9FF04C0EAFF9D
:100BC00007C0EFFF00C003F0002A046A310E0326BD
:100BD000030E04220650076E03C0E9FF04C0EAFFBB
:100BE00007C0EFFF00C003F0002A046A310E03269D
:100BF000030E04220550076E03C0E9FF04C0EAFF9C
:100C000007C0EFFF28D630C303F00650E56E05504D
:100C1000E56EE56A0350E56E000EE56E2E0EE56E9C
:100C2000960EE56E25EC1EF0070EE12614D602C0E6
:100C300001F000501DE003012DA31AD000C002F006
:100C4000002A036A310E0226030E032202C0E9FFC6
:100C500003C0EAFF0A0EEF6E0050E56E800EE56EEF
:100C6000030EE56E310EE56E51EC17F0040EE12631
:100C70000150E4CF0CF0E4CF0BF0E4CF0AF0E4CF66
:100C800009F0E4CF08F0E4CF07F0E4CF06F0E4CFBA
:100C900005F0E4CF04F0E4CF03F0E4CF02F0E4CFBA
:100CA00001F0E4CF00F0120000C0E5FF01C0E5FF55
:100CB00002C0E5FF03C0E5FF04C0E5FFEAEC25F054
:100CC00094928B9287EC21F0F3CF01F0F4CF02F0F5
:100CD000E9CF03F0880F0401336F130E0120346F46
:100CE000000E0220356F000E0320366F18EC1DF049
:100CF000938A810E006E0F0E016E0F0E036E380E7A
:100D00000026035001220F0E036E800E005E03507A
:100D1000015A810E026E0F0E036E0F0E046E380E16
:100D20000226045003220F0E046E800E025E045051
:100D3000035A02C0E9FF03C0EAFFEFCF02F0029AB4
:100D400000C0E9FF01C0EAFF02C0EFFF050EE56E3B
:100D5000800EE56E0F0EE56E810EE56E000EE56A03
:100D60005FEC1DF0050EE1269388810E006E0F0EDC
:100D7000016E0F0E036E380E0026035001220F0E77
:100D8000036E800E005E0350015A810E026E0F0E3C
:100D9000036E0F0E046E380E0226045003220F0E4F
:100DA000046E800E025E0450035A02C0E9FF03C0C5
:100DB000EAFFEFCF02F0029800C0E9FF01C0EAFFAE
:100DC00002C0EFFF040EE56E800EE56E0F0EE56EBD
:100DD000810EE56E010EE56E5FEC1DF0050EE1265D
:100DE0009386810E006E0F0E016E0F0E036E380E8D
:100DF0000026035001220F0E036E800E005E03508A
:100E0000015A810E026E0F0E036E0F0E046E380E25
:100E10000226045003220F0E046E800E025E045060
:100E2000035A02C0E9FF03C0EAFFEFCF02F00296C7
:100E300000C0E9FF01C0EAFF02C0EFFF030EE56E4C
:100E4000800EE56E0F0EE56E810EE56E020EE56E0C
:100E50005FEC1DF0050EE1269384810E006E0F0EEF
:100E6000016E0F0E036E380E0026035001220F0E86
:100E7000036E800E005E0350015A810E026E0F0E4B
:100E8000036E0F0E046E380E0226045003220F0E5E
:100E9000046E800E025E0450035A02C0E9FF03C0D4
:100EA000EAFFEFCF02F0029400C0E9FF01C0EAFFC1
:100EB00002C0EFFF020EE56E800EE56E0F0EE56ECE
:100EC000810EE56E030EE56E5FEC1DF0050EE1266A
:100ED0009382810E006E0F0E016E0F0E036E380EA0
:100EE0000026035001220F0E036E800E005E035099
:100EF000015A810E026E0F0E036E0F0E046E380E35
:100F00000226045003220F0E046E800E025E04506F
:100F1000035A02C0E9FF03C0EAFFEFCF02F00292DA
:100F200000C0E9FF01C0EAFF02C0EFFF010EE56E5D
:100F3000800EE56E0F0EE56E810EE56E040EE56E19
:100F40005FEC1DF0050EE1269380810E006E0F0E02
:100F5000016E0F0E036E380E0026035001220F0E95
:100F6000036E800E005E0350015A810E026E0F0E5A
:100F7000036E0F0E046E380E0226045003220F0E6D
:100F8000046E800E025E0450035A02C0E9FF03C0E3
:100F9000EAFFEFCF02F0029000C0E9FF01C0EAFFD4
:100FA00002C0EFFFE56A800EE56E0F0EE56E810E62
:100FB000E56E050EE56E5FEC1DF0050EE126F19E77
:100FC00092909292929492989296929ACEEC16F077
:100FD0009484820E006E0F0E016E0F0E036E380E9B
:100FE0000026035001220F0E036E800E005E035098
:100FF000015A820E026E0F0E036E0F0E046E380E33
:101000000226045003220F0E046E800E025E04506E
:10101000035A02C0E9FF03C0EAFFEFCF02F00284E7
:1010200000C0E9FF01C0EAFF02C0EFFF0E0EE56E4F
:10103000000EE56A84EC19F0E652E652948A820EBC
:10104000006E0F0E016E0F0E036E380E0026035059
:1010500001220F0E036E800E005E0350015A820EB5
:10106000026E0F0E036E0F0E046E380E0226045031
:1010700003220F0E046E800E025E0450035A02C05B
:10108000E9FF03C0EAFFEFCF02F0028A00C0E9FFE8
:1010900001C0EAFF02C0EFFF110EE56E010EE56E22
:1010A00084EC19F0E652E652270EE56EE56A080E6A
:1010B000E56EF7EC12F0030EE126E56A800EE56EB0
:1010C000040EE56E790EE56E4DEC1BF0040EE12684
:1010D000010EE56E800EE56E040EE56E810EE56E86
:1010E0004DEC1BF0040EE126E4CF04F0E4CF03F056
:1010F000E4CF02F0E4CF01F0E4CF00F012004300AF
:101100002563000000C0E5FF01C0E5FF02C0E5FF68
:1011100003C0E5FF04C0E5FF05C0E5FF06C0E5FF2D
:1011200007C0E5FF08C0E5FF09C0E5FF0AC0E5FF0D
:10113000C2A204D003012E5192EF0AF003012F51F5
:10114000D8B418D103012E51020DF450016EF3CF23
:1011500000F0E00E0026000E012200C0E9FF01C0F1
:10116000EAFFEECF00F0EFCF01F0230E2E25026E46
:10117000036A0F0E032202C0E9FF03C0EAFFEFCFAC
:1011800002F00250FF0A01E152D002380F0B036E49
:10119000920E0324046E056A0F0E0522066A920E53
:1011A00003260F0E062203C0E9FF06C0EAFFEFCFB9
:1011B00003F0070E0214066E010E076E065005E0DE
:1011C000E86CD8900736010FFDE3071C066E031686
:1011D00004C0E9FF05C0EAFF03C0EFFF02380F0BB0
:1011E000036E890E0324046E056A0F0E0522066A3B
:1011F000890E03260F0E062203C0E9FF06C0EAFF90
:10120000EFCF03F0070E0214066E010E076E0650B4
:1012100005E0E86CD8900736010FFDE3071C066E69
:10122000031604C0E9FF05C0EAFF03C0EFFF030196
:101230002E51020DF450046EF3CF03F0E00E03269E
:10124000000E042201340130066E0030056E0634B3
:10125000063205320550005C056E06500158066ED8
:10126000C3CF07F0086A0750052608500622C4CFEE
:1012700007F0086A07500A6E096A095005260A50E5
:10128000062203C0E9FF04C0EAFF05C0EEFF06C066
:10129000EFFF03012A51010A01E06AD003012E5138
:1012A000020DF450046EF3CF03F0E00E0324056E3C
:1012B000000E0420066E05C0E9FF06C0EAFFEECF6F
:1012C00000F0EFCF01F0930E0326040E042203C0BA
:1012D000E9FF04C0EAFFEECF05F0EFCF06F09C0E69
:1012E0000526D8A006060150800FF36E0650800F29
:1012F000F35C02E10550005C0EE20050640F056EE5
:10130000000E0120066E03C0E9FF04C0EAFF05C01D
:10131000EEFF06C0EFFF03012E51020DF450046EE4
:10132000F3CF03F0B30E0326040E042203C0E9FF3B
:1013300004C0EAFFEECF05F0EFCF06F0640E0526FD
:10134000D8B0062A0650800FF36E0150800FF35C70
:1013500002E10050055C0CE29C0E0026D8A00106BC
:1013600003C0E9FF04C0EAFF00C0EEFF01C0EFFFC9
:1013700003012F6B03012E2B100E2E5D01E32E6B4C
:1013800003012E39E8441F0B006E016A770E002618
:10139000030E012200C0E9FF01C0EAFFEFCF00F019
:1013A000070E2E15016E010E036E000E046E015025
:1013B00006E0E86CD89003360436010FFCE3056ABA
:1013C000005003160550041603500410D880E86638
:1013D000D890036A03360350D8A4A2D03F0E03016D
:1013E0002E25006E016A030E012200C0E9FF01C034
:1013F000EAFFEFCF00F00044E844FC0B016E012847
:10140000C26E230E2E25006E016A0F0E012200C04F
:10141000E9FF01C0EAFFEFCF02F00250FF0A01E14D
:101420007BD002380F0B006E920E0024016E036A0F
:101430000F0E0322046A920E00260F0E042200C033
:10144000E9FF04C0EAFFEFCF00F0070E0214046EBC
:10145000010E056E045005E0E86CD8900536010FCA
:10146000FDE30550001201C0E9FF03C0EAFF00C020
:10147000EFFF380E006E0F0E016E02380F0B036E79
:10148000046A0350002604500122380E056E0F0E28
:10149000066E055003260650042203C0E9FF04C06F
:1014A000EAFFEFCF03F0070E0216010E046E0250A2
:1014B00005E0E86CD8900436010FFDE304500312F8
:1014C00000C0E9FF01C0EAFF03C0EFFF0F01458341
:1014D0000000000045930F0144930BC0E5FFF2CFDD
:1014E0000BF0F29E448100000000000000000000AC
:1014F00000000000000000000000000000000000EC
:101500000000000000000000000000000000449106
:101510000BBEF28EE4CF0BF0C282010E03012F6FDF
:1015200003012E51E4CF0AF0E4CF09F0E4CF08F034
:10153000E4CF07F0E4CF06F0E4CF05F0E4CF04F009
:10154000E4CF03F0E4CF02F0E4CF01F0E4CF00F009
:101550001200800EE56E040EE56EB30EE56E9DEC96
:101560001BF0030EE126800EE56E040EE56E930E71
:10157000E56E9DEC1BF0030EE126800EE56E040E79
:10158000E56EB50EE56E9DEC1BF0030EE126800EB8
:10159000E56E040EE56E950EE56E9DEC1BF0030EF8
:1015A000E126800EE56E040EE56EB70EE56E9DEC4D
:1015B0001BF0030EE126800EE56E040EE56E970E1D
:1015C000E56E9DEC1BF0030EE126800EE56E040E29
:1015D000E56EB90EE56E9DEC1BF0030EE126800E64
:1015E000E56E040EE56E990EE56E9DEC1BF0030EA4
:1015F000E126800EE56E040EE56EBB0EE56E9DECF9
:101600001BF0030EE126800EE56E040EE56E9B0EC8
:10161000E56E9DEC1BF0030EE126800EE56E040ED8
:10162000E56EBD0EE56E9DEC1BF0030EE126800E0F
:10163000E56E040EE56E9D0EE56E9DEC1BF0030E4F
:10164000E126800EE56E040EE56EBF0EE56E9DECA4
:101650001BF0030EE126800EE56E040EE56E9F0E74
:10166000E56E9DEC1BF0030EE126800EE56E040E88
:10167000E56EC10EE56E9DEC1BF0030EE126800EBB
:10168000E56E040EE56EA10EE56E9DEC1BF0030EFB
:10169000E126800EE56E040EE56EC30EE56E9DEC50
:1016A0001BF0030EE126800EE56E040EE56EA30E20
:1016B000E56E9DEC1BF0030EE126800EE56E040E38
:1016C000E56EC50EE56E9DEC1BF0030EE126800E67
:1016D000E56E040EE56EA50EE56E9DEC1BF0030EA7
:1016E000E126800EE56E040EE56EC70EE56E9DECFC
:1016F0001BF0030EE126800EE56E040EE56EA70ECC
:10170000E56E9DEC1BF0030EE126800EE56E040EE7
:10171000E56EC90EE56E9DEC1BF0030EE126800E12
:10172000E56E040EE56EA90EE56E9DEC1BF0030E52
:10173000E126800EE56E040EE56ECB0EE56E9DECA7
:101740001BF0030EE126800EE56E040EE56EAB0E77
:10175000E56E9DEC1BF0030EE126800EE56E040E97
:10176000E56ECD0EE56E9DEC1BF0030EE126800EBE
:10177000E56E040EE56EAD0EE56E9DEC1BF0030EFE
:10178000E126800EE56E040EE56ECF0EE56E9DEC53
:101790001BF0030EE126800EE56E040EE56EAF0E23
:1017A000E56E9DEC1BF0030EE126800EE56E040E47
:1017B000E56ED10EE56E9DEC1BF0030EE126800E6A
:1017C000E56E040EE56EB10EE56E9DEC1BF0030EAA
:1017D000E1261200D9CFE5FFE1CFD9FF00C0E5FF38
:1017E00001C0E5FF02C0E5FF03C0E5FF04C0E5FF5F
:1017F00005C0E5FF06C0E5FF07C0E5FF020EDBCF31
:1018000000F0030EDBCF01F0040EDBCF02F0050E7B
:10181000DBCF03F0060EDBCF04F0070EDBCF05F0C5
:10182000080EDBCF06F0090EDBCF07F000500401F5
:101830008E6F01508F6F0250906F0350916F045064
:101840000301586F0550596F06505A6F07505B6F70
:1018500004018E5103015A03F4CF01F0F3CF00F0DD
:10186000005003015E6F01505F6F04018E51030150
:101870005803F4CF01F0F3CF00F0005003015C6F88
:1018800001505D6F0401915103015803F3CF00F043
:1018900003015F51002600505F6F04019051030166
:1018A0005903F3CF01F001500026005003015F6F90
:1018B0000401905103015803F4CF01F0F3CF00F07D
:1018C00003015E5100265F51012200505E6F0150FE
:1018D0005F6F04018F5103015903F4CF03F0F3CF7D
:1018E00002F00250002603500122005003015E6FF7
:1018F00001505F6F04018F5103015A03F3CF00F0D1
:1019000000500301636F04018F5103015803F4CFAA
:1019100001F0F3CF00F000500301616F0150626FDE
:1019200004018E5103015B03F3CF00F0005003016B
:10193000676F04018E5103015903F4CF01F0F3CF17
:1019400000F000500301656F0150666F0301606B8A
:101950000301646B0301605103015C25006E030108
:10196000615103015D21016E0301625103015E219A
:10197000026E0301635103015F21036E00505C6F2F
:1019800001505D6F02505E6F03505F6F0301645141
:1019900003015C25006E0301655103015D21016EA9
:1019A0000301665103015E21026E030167510301C9
:1019B0005F21036E03C0E9FF02C0F4FF01C0F3FF23
:1019C0000050E4CF07F0E4CF06F0E4CF05F0E4CF19
:1019D00004F0E4CF03F0E4CF02F0E4CF01F0E4CF71
:1019E00000F0E4CFD9FF120000C0E5FF01C0E5FF21
:1019F00003012651D8B4F5D09DA81DD09EA81BD0B8
:101A00000301815103017E1905E158EC25F0030122
:101A10007E6BE7D0000E03018125006E016A040E83
:101A2000012200C0E9FF01C0EAFFEFCF7AF3812B6A
:101A30007AC3ADFFD6D09EAAD4D0ABA205D0030105
:101A40007F8158EC25F0CDD0ABA405D003017F8376
:101A500058EC25F0C6D0ABA03ED0AECF7AF3800EC6
:101A60000301271103017A1904E103017F89AB9671
:101A7000B8D003017A5104E07A510301271927E114
:101A800003017F99AB9603017A5103E003017F972D
:101A900002D003017F877AC383F37CC384F30301FD
:101AA0007C050301856F600E03018425006E016AC9
:101AB000000E012200C0E9FF01C0EAFF7AC3EFFF78
:101AC000842B8451800A02E10301846B8AD00301D4
:101AD0007F99AB8686D0AECF7AF303017FA919D068
:101AE000800E0301271103017A1911E18B909D9A51
:101AF000AB9803017E5104E1AD6A58EC25F007D0A4
:101B000000C4ADFF010E0301816F9D886AD0AB86D2
:101B100068D003017A510301832703018451030133
:101B200085191BE1030183510CE184C37CF303019C
:101B30007FB712D08B909D9AAB98AD6A58EC25F088
:101B40000BD003017F857FB707D08B909D9AAB9810
:101B5000010EAD6E58EC25F044D003018451030111
:101B60007D1908E103017D5103017C1903E058EC64
:101B700025F037D07CC300F0016A004A012AE56AEB
:101B8000800EE56E0150E56E0050E56E43EC18F0F6
:101B9000006E040EE126005003017B6F03018419DF
:101BA0000CE11F0E03017A150301856F852B852B30
:101BB00003017C5103018527859F84C300F0030145
:101BC000842B016A600E0026000E012200C0E9FF8E
:101BD00001C0EAFF7AC3EFFF8451800A02E10301EA
:101BE000846BE4CF01F0E4CF00F0120000C0E5FF09
:101BF00001C0E5FF02C0E5FF03C0E5FF04C0E5FF4B
:101C000005C0E5FF06C0E5FF07C0E5FF08C0E5FF2A
:101C100009C0E5FF0AC0E5FF006A016A040E015C25
:101C2000D8B0B3D0230E03012925026E036A040E37
:101C3000032202C0E9FF03C0EAFFEFCF02F0025027
:101C4000FF0A01E19BD003012939E8441F0B026E12
:101C5000750E0224036E046A030E042203C0E9FF1A
:101C600004C0EAFFEFCF03F0070E2915046E010E42
:101C7000056E000E066E045006E0E86CD89005363E
:101C80000636010FFCE3076A0550031606500716D7
:101C900003500710D880E866D890036A03360350D3
:101CA000D880E866D890036A0336076A730E022666
:101CB000030E072202C0E9FF07C0EAFFEFCF08F0DA
:101CC00008C009F00A6A095005160A5006160550A0
:101CD0000610D880E866D890056A05360550D88089
:101CE000E866D890056A05360350051801E146D02C
:101CF000035012E0010E056E045005E0E86CD89028
:101D00000536010FFDE30550081202C0E9FF07C0C8
:101D1000EAFF08C0EFFF17D002C0E9FF07C0EAFFE3
:101D2000EFCF05F0010E066E045005E0E86CD89088
:101D30000636010FFDE3061C051602C0E9FF07C0C9
:101D4000EAFF05C0EFFF035003E1036A032A01D055
:101D5000036A29C304F0E56A0350E56EE56A04509E
:101D6000E56E000EE56E3A0EE56EB20EE56E25EC00
:101D70001EF0070EE126012A01C000F00301292B05
:101D8000100E295DD8A04AD7296B0050E4CF0AF085
:101D9000E4CF09F0E4CF08F0E4CF07F0E4CF06F099
:101DA000E4CF05F0E4CF04F0E4CF03F0E4CF02F099
:101DB000E4CF01F0E4CF00F01200D9CFE5FFE1CF8E
:101DC000D9FF00C0E5FF01C0E5FF02C0E5FF03C089
:101DD000E5FF04C0E5FF05C0E5FF06C0E5FF07C05D
:101DE000E5FF08C0E5FF09C0E5FF0AC0E5FF0BC03D
:101DF000E5FF0CC0E5FF0DC0E5FF0EC0E5FF0FC01D
:101E0000E5FF020EDBCF00F0030EDBCF01F0040E86
:101E1000DBCF02F0050EDBCF03F0060EDBCF04F0C4
:101E2000070EDBCF05F0080EDBCF06F0200E076EA5
:101E3000086A06C009F00A6A0B6A0C6AE56AE56A74
:101E4000E56A0950E56E0350E56E0250E56E0150FB
:101E5000E56E0050E56E28EC11F00D6E080EE126DF
:101E6000300E0D263A0E0D5C05E30D500E6E270E5A
:101E70000E240D6EFF0E07260822000E07240E6E9C
:101E8000030E08200F6E0EC0E9FF0FC0EAFF0DC061
:101E9000EFFF0C50E56E0B50E56E0A50E56E0950F1
:101EA000E56E0350E56E0250E56E0150E56E0050A0
:101EB000E56E88EC13F0006EF3CF01F0F4CF02F082
:101EC000E9CF03F0080EE1260050011002100310C4
:101ED000D8A4AFD707C000F008C001F004C002F0DA
:101EE00005C003F000C004F001C005F0004A012A5B
:101EF000000E0426030E052204C0E9FF05C0EAFF18
:101F0000EFCF04F002C0E9FF03C0EAFF04C0EFFF17
:101F1000024A032A000E015C02E1200E005CE2E3AB
:101F200002C0E9FF03C0EAFF000EEF6AE4CF0FF042
:101F3000E4CF0EF0E4CF0DF0E4CF0CF0E4CF0BF0E3
:101F4000E4CF0AF0E4CF09F0E4CF08F0E4CF07F0E3
:101F5000E4CF06F0E4CF05F0E4CF04F0E4CF03F0E3
:101F6000E4CF02F0E4CF01F0E4CF00F0E4CFD9FFFA
:101F70001200D9CFE5FFE1CFD9FF00C0E5FF01C0D6
:101F8000E5FF02C0E5FF03C0E5FF04C0E5FF05C0B3
:101F9000E5FF06C0E5FF020EDBCF00F0030EDBCF4E
:101FA00001F0040EDBCF02F000C0E9FF01C0F3FF37
:101FB00002501AEC25F0036EE56AE56EA0EC20F005
:101FC000E652E652320EE56E1AEC24F0E65279EC57
:101FD00022F0010EE56E0350E56EA0EC20F0E65213
:101FE000E6520050010F036E000E0120046E000E39
:101FF0000220056E5CEC21F0066E06C0E5FF03C012
:10200000E9FF04C0F3FF0550A2EC25F0DBEC21F062
:102010000050020F036E000E0120046E000E02201D
:10202000056E5CEC21F0066E06C0E5FF03C0E9FF1B
:1020300004C0F3FF0550A2EC25F0DBEC21F00050CA
:10204000030F036E000E0120046E000E0220056EC9
:102050005CEC21F0066E06C0E5FF03C0E9FF04C09A
:10206000F3FF0550A2EC25F0DBEC21F00050040F4B
:10207000036E000E0120046E000E0220056E5CEC63
:1020800021F0066E06C0E5FF03C0E9FF04C0F3FFC0
:102090000550A2EC25F0DBEC21F00050050F036E9B
:1020A000000E0120046E000E0220056E5CEC21F093
:1020B000066E06C0E5FF03C0E9FF04C0F3FF05504C
:1020C000A2EC25F0DBEC21F0060E0026000E01222A
:1020D00002225CEC21F0036E03C0E5FF00C0E9FFC3
:1020E00001C0F3FF0250A2EC25F079EC22F0E4CF1E
:1020F00006F0E4CF05F0E4CF04F0E4CF03F0E4CF42
:1021000002F0E4CF01F0E4CF00F0E4CFD9FF1200F9
:1021100000C0E5FF01C0E5FF02C0E5FF03C0E5FF29
:1021200004C0E5FF05C0E5FF006A230E0024016E30
:10213000026A040E022201C0E9FF02C0EAFFEFCFEB
:1021400001F00150FF0A01E171D001380F0B026E5E
:10215000036A800E02260F0E032202C0E9FF03C0AD
:10216000EAFFEFCF02F0070E0116010E036E000E1C
:10217000046E015006E0E86CD89003360436010F77
:10218000FCE3056A025003160550041603500410C0
:10219000D880E866D890036A0336035024E10038FB
:1021A000E8441F0B016E026A750E0126030E02221F
:1021B00001C0E9FF02C0EAFFEFCF03F0070E0014F1
:1021C000046E010E056E045005E0E86CD8900536EB
:1021D000010FFDE30550031201C0E9FF02C0EAFF51
:1021E00003C0EFFF23D00038E8441F0B016E026AE2
:1021F000750E0126030E022201C0E9FF02C0EAFFAC
:10220000EFCF03F0070E0014046E010E056E0450AC
:1022100005E0E86CD8900536010FFDE3051C0316B8
:1022200001C0E9FF02C0EAFF03C0EFFF002A100E61
:10223000005CD8A07AD7E4CF05F0E4CF04F0E4CF77
:1022400003F0E4CF02F0E4CF01F0E4CF00F012009D
:10225000D9CFE5FFE1CFD9FF00C0E5FF01C0E5FF21
:1022600002C0E5FF03C0E5FF04C0E5FF05C0E5FFD0
:1022700006C0E5FF07C0E5FF08C0E5FF09C0E5FFB0
:102280000AC0E5FF020EDBCF00F0030EDBCF01F04A
:10229000040EDBCF02F0050EDBCF03F0060EDBCF22
:1022A00004F0070EDBCF05F0080EDBCF06F0090EB9
:1022B000DBCF07F0086A045005100610071005E18F
:1022C000E968F468F368E86847D0096A0750800B4A
:1022D000E8440A6E0A501BE104500426053606360F
:1022E00007360750035C08E10650025C05E1055023
:1022F000015C02E10450005C06E2D890073206322D
:102300000532043204D0092A09C008F0DFD707508B
:10231000035C08E10650025C05E10550015C02E146
:102320000450005C08E30450005E0550015A06505A
:10233000025A0750035AD890073206320532043247
:1023400008C009F008060950E2E103C0E9FF02C035
:10235000F4FF01C0F3FF0050E4CF0AF0E4CF09F02E
:10236000E4CF08F0E4CF07F0E4CF06F0E4CF05F0C7
:10237000E4CF04F0E4CF03F0E4CF02F0E4CF01F0C7
:10238000E4CF00F0E4CFD9FF120000C0E5FF01C0A8
:10239000E5FF02C0E5FF03C0E5FFA5EC14F088EC03
:1023A00010F0A5EC14F082EC08F0A5EC14F0800E0F
:1023B000E56E040EE56E790EE56EB9EC0FF0030ED6
:1023C000E126A5EC14F0800EE56E040EE56E810E9C
:1023D000E56EB9EC0FF0030EE126A5EC14F087ECE6
:1023E00021F0006EF3CF01F0F4CF02F0E9CF03F05B
:1023F00004013351005E3451015A3551025A3651AD
:10240000035A039E3F0E035C08E1FF0E025C05E1E8
:10241000FF0E015C02E1FF0E005CD8B047D087ECF4
:1024200021F0F3CF01F0F4CF02F0E9CF03F0880FF1
:102430000401336F130E0120346F000E0220356F3C
:10244000000E0320366F0301205108E1F6EC0DF079
:10245000006E005024E10EEC04F021D00301205165
:10246000010A0DE1010EE56E800EE56E040EE56ECB
:10247000790EE56E5FEC12F0040EE12610D0030138
:102480002051020A0CE1020EE56E800EE56E040E8C
:10249000E56E810EE56E5FEC12F0040EE12603019D
:1024A000202B2051030A02E10301206BE4CF03F04B
:1024B000E4CF02F0E4CF01F0E4CF00F01200D9CF76
:1024C000E5FFE1CFD9FF00C0E5FF01C0E5FF02C095
:1024D000E5FF03C0E5FF04C0E5FF020EDBCF00F01F
:1024E000030EDBCF01F0040EDBCF02F0050EDBCFD5
:1024F00003F0420E03014F6F0350506F0050010F65
:10250000036E000E0120046E000E022003C0E9FFDE
:1025100004C0F3FF1AEC25F00301516F0050020FC5
:10252000036E000E0120046E000E022003C0E9FFBE
:1025300004C0F3FF1AEC25F00301526F0050030FA3
:10254000036E000E0120046E000E022003C0E9FF9E
:1025500004C0F3FF1AEC25F00301536F0050040F81
:10256000036E000E0120046E000E022003C0E9FF7E
:1025700004C0F3FF1AEC25F00301546F0050050F5F
:10258000036E000E0120046E000E022003C0E9FF5E
:1025900004C0F3FF1AEC25F00301556F060E002668
:1025A000000E0122022200C0E9FF01C0F3FF025029
:1025B0001AEC25F00301566F0A0E576F090EE56EEF
:1025C000800EE56E030EE56E4F0EE56E51EC17F0D2
:1025D000040EE126E4CF04F0E4CF03F0E4CF02F0F0
:1025E000E4CF01F0E4CF00F0E4CFD9FF1200D9CF5F
:1025F000E5FFE1CFD9FF00C0E5FF01C0E5FF02C064
:10260000E5FF03C0E5FF04C0E5FF05C0E5FF020EDE
:10261000DBCF00F0030EDBCF01F0040EDBCF02F0C6
:102620003F0EC716C66AC56A0050C6120150C712CF
:102630009488820E006E0F0E016E0F0E046E380E1F
:102640000026045001220F0E046E800E005E04501E
:10265000015A820E036E0F0E046E0F0E056E380EB9
:102660000326055004220F0E056E800E035E0550F2
:10267000045A03C0E9FF04C0EAFFEFCF03F0039858
:1026800000C0E9FF01C0EAFF03C0EFFF9486820E9D
:10269000006E0F0E016E0F0E046E380E00260450F1
:1026A00001220F0E046E800E005E0450015A820E4D
:1026B000036E0F0E046E0F0E056E380E03260550C6
:1026C00004220F0E056E800E035E0550045A03C0EF
:1026D000E9FF04C0EAFFEFCF03F0039600C0E9FF73
:1026E00001C0EAFF03C0EFFF02C0C8FFC68A9E9682
:1026F000A196E4CF05F0E4CF04F0E4CF03F0E4CFFB
:1027000002F0E4CF01F0E4CF00F0E4CFD9FF1200F3
:10271000D9CFE5FFE1CFD9FF00C0E5FF01C0E5FF5C
:1027200002C0E5FF03C0E5FF04C0E5FF05C0E5FF0B
:1027300006C0E5FF07C0E5FF08C0E5FF09C0E5FFEB
:102740000AC0E5FF0BC0E5FF0CC0E5FF0DC0E5FFCB
:10275000020EDBCF00F0030EDBCF01F0040EDBCF67
:1027600002F0050EDBCF03F0060EDBCF04F0070E00
:10277000DBCF05F0080EDBCF06F0090EDBCF07F04C
:10278000086A096A0A6A0B6A200E0C6E0350800BF5
:10279000E8440D6E0050002601360236033608501C
:1027A000082609360A360B360D50D8A40880075083
:1027B0000B5C08E106500A5C05E10550095C02E18A
:1027C0000450085C09E30450085E0550095A06509D
:1027D0000A5A07500B5A00800C040D6E0DC00CF005
:1027E0000D50D4E103C0E9FF02C0F4FF01C0F3FFC4
:1027F0000050E4CF0DF0E4CF0CF0E4CF0BF0E4CFC9
:102800000AF0E4CF09F0E4CF08F0E4CF07F0E4CF1A
:1028100006F0E4CF05F0E4CF04F0E4CF03F0E4CF1A
:1028200002F0E4CF01F0E4CF00F0E4CFD9FF1200D2
:1028300000C0E5FF01C0E5FF03C0E5FF04C0E5FF00
:1028400005C0E5FF06C0E5FF07C0E5FF08C0E5FFDE
:1028500009C0E5FF0AC0E5FF0BC0E5FF71C300F04A
:1028600072C301F00301713F01D0722B0050E56E7D
:102870004AEC25F0E652076E046A056A066A71C3DF
:1028800000F072C301F00301713F01D0722B0050C0
:10289000E56E4AEC25F0E6520B6A0A6E086A0850AB
:1028A000041205120A5006120B50071271C300F0F1
:1028B00072C301F00301713F01D0722B0050E56E2D
:1028C0004AEC25F0E652036E006A03C001F0E86AA4
:1028D00003BEFF0E086E096E00500412015005126F
:1028E000085006120950071271C300F072C301F0BC
:1028F0000301713F01D0722B0050E56E4AEC25F0C8
:10290000E652016A0412015005120612071207C0AE
:10291000E9FF06C0F4FF05C0F3FF0450E4CF0BF05D
:10292000E4CF0AF0E4CF09F0E4CF08F0E4CF07F0F9
:10293000E4CF06F0E4CF05F0E4CF04F0E4CF03F0F9
:10294000E4CF01F0E4CF00F0120000C0E5FF01C0C9
:10295000E5FF02C0E5FF03C0E5FF04C0E5FF03019A
:102960007D5103017C1901E15FD07DC300F0002A95
:10297000009E600E0024016E026A000E022201C059
:10298000E9FF02C0EAFFEFCF87F31F0E03018717AD
:102990007DC386F3875103018627862B862B869F6E
:1029A000B1EC21F0016E015003E1016A012A01D06E
:1029B000016AB1EC21F00301876F800E8715026E6A
:1029C0001F0E8715036E03C004F003C087F3045085
:1029D00003E17CC37DF33BD001501BE0025022E0B9
:1029E000B1EC21F0006E030187070050420A1AE0A3
:1029F00000504E0A03E1A3EC1DF014D00050460A2B
:102A000003E18CEC25F00ED00050490A0BE1FF00E9
:102A100009D07DC388F3025003E0A4EC1EF002D07D
:102A200007EC20F086C37DF3030123510301241931
:102A300006E003017E5103E1BCEC15F008D08BB039
:102A400006D003017E5103E1ACB258EC25F0E4CF8F
:102A500004F0E4CF03F0E4CF02F0E4CF01F0E4CFE0
:102A600000F01200D9CFE5FFE1CFD9FF00C0E5FFAC
:102A700001C0E5FF02C0E5FF03C0E5FF04C0E5FFBC
:102A800005C0E5FF06C0E5FF07C0E5FF08C0E5FF9C
:102A900009C0E5FF0AC0E5FF020EDBCF00F0030E20
:102AA000DBCF01F0040EDBCF02F0050EDBCF03F02D
:102AB000060EDBCF04F0070EDBCF05F00038E8444C
:102AC0001F0B066E076A770E0626030E072206C046
:102AD000E9FF07C0EAFFEFCF08F0070E0014096E08
:102AE000010E0A6E095005E0E86CD8900A36010F15
:102AF000FDE30A50081206C0E9FF07C0EAFF08C05C
:102B0000EFFF3F0E0024066E076A030E072206C081
:102B1000E9FF07C0EAFF01C0EFFF016A230E0026AC
:102B20000F0E0122800E025E070E02160238F00B15
:102B3000036E070E05160550032600C0E9FF01C00D
:102B4000EAFF03C0EFFFE4CF0AF0E4CF09F0E4CFDF
:102B500008F0E4CF07F0E4CF06F0E4CF05F0E4CFCF
:102B600004F0E4CF03F0E4CF02F0E4CF01F0E4CFCF
:102B700000F0E4CFD9FF120000C0E5FF01C0E5FF7F
:102B800002C0E5FF03C0E5FFACA276D056EC23F00F
:102B9000006E005005E10301246B0301236B6CD030
:102BA00024C301F00050012656EC23F0026E00060B
:102BB0000250230A1FE1010E005CD8A05BD056EC46
:102BC00023F0026E690A03E1D1EC20F053D00250E9
:102BD000720A03E158EC25F04DD00250730A01E06F
:102BE00049D08B80AB869D8A9D98AE50AE50AB98F5
:102BF000AB8840D00250430A05E00250420A01E08F
:102C000039D001D0008E00C080F300500401006F65
:102C1000010E0301816F03012451011814E056ECE9
:102C200023F0026E03018027000E03018125006E50
:102C3000036A040E032200C0E9FF03C0EAFF02C0DA
:102C4000EFFF812BE8D7000E03018125006E026A99
:102C5000040E02220301801D036E032A00C0E9FF57
:102C600002C0EAFF03C0EFFF0301812B81C37EF3A3
:102C70000401886B01C024F3E4CF03F0E4CF02F039
:102C8000E4CF01F0E4CF00F01200D9CFE5FFE1CFAF
:102C9000D9FF00C0E5FF01C0E5FF02C0E5FF03C0AA
:102CA000E5FF04C0E5FF05C0E5FF06C0E5FF07C07E
:102CB000E5FF020EDBCF00F0030EDBCF01F0040EC8
:102CC000DBCF02F0050EDBCF03F002C006F00650AA
:102CD000046E800A33E100C0E9FF01C0F3FF025037
:102CE000CDEC23F0056EF3CF06F0F4CF07F003C070
:102CF000E5FF05C0E9FF06C0F3FF0750A2EC25F091
:102D000000C0E9FF01C0F3FF0250CDEC23F0056ED7
:102D1000F3CF06F0F4CF07F0052A02E3064A072AAC
:102D200005C0E5FF06C0F4FF07C0F6FF00C0E9FFDD
:102D300001C0F3FF02503BEC25F01DD004AA1BD0CC
:102D4000047A045004E10350EFEC25F014D0045051
:102D5000010A04E1035002EC26F00DD004500F0AE2
:102D600004E103506FEC20F006D004500E0A03E19A
:102D70000350FFEC25F0E4CF07F0E4CF06F0E4CFFA
:102D800005F0E4CF04F0E4CF03F0E4CF02F0E4CFA9
:102D900001F0E4CF00F0E4CFD9FF120000C0E5FF5E
:102DA00001C0E5FF02C0E5FF03C0E5FF04C0E5FF89
:102DB000006A770E0024016E026A030E022201C02F
:102DC000E9FF02C0EAFFEF6A002A020E005CF1E3AD
:102DD000006A0050020DF450026EF3CF01F0E00ED5
:102DE0000124036E000E0220046E03C0E9FF04C03C
:102DF000EAFFEE6AEF6A390E0124036E040E022028
:102E0000046E03C0E9FF04C0EAFFEE6AEF6A590EE0
:102E10000124036E040E0220046E03C0E9FF04C007
:102E2000EAFFEE6AEF6A930E0124036E040E02209D
:102E3000046E03C0E9FF04C0EAFFEE6AEF6AB30E56
:102E40000126040E022201C0E9FF02C0EAFFEE687B
:102E50007F0EEF6E230E0024016E026A0F0E022217
:102E600001C0E9FF02C0EAFFEF68002A100E005C13
:102E7000D8A0AFD7AF0EC06EC16A010EC26EC282BB
:102E8000E4CF04F0E4CF03F0E4CF02F0E4CF01F0AC
:102E9000E4CF00F012004320412025642025640A7D
:102EA0000000D9CFE5FFE1CFD9FF00C0E5FF01C0A9
:102EB000E5FF02C0E5FF03C0E5FF04C0E5FF05C074
:102EC000E5FF06C0E5FF07C0E5FF020EDBCF00F01F
:102ED000030EDBCF01F0040EDBCF02F0050EDBCFDB
:102EE00003F024C325F3030123510301255F2507C4
:102EF00003C004F0056A030E0426D8B0052A25C3D2
:102F000006F0076A0750800FF36E0550800FF35CE0
:102F100002E10450065C02E2E8682BD0020E035C7A
:102F200002E2E86A26D003060350E56E1EEC1FF0AD
:102F3000E652046A0350045C14E204500024056E57
:102F4000E86A0120066EE86A022005C0E9FF06C0B3
:102F5000F3FF1AEC25F0042AE56E1EEC1FF0E65292
:102F6000E9D724C325F3030123510301255F250776
:102F7000E86AE4CF07F0E4CF06F0E4CF05F0E4CF51
:102F800004F0E4CF03F0E4CF02F0E4CF01F0E4CFAB
:102F900000F0E4CFD9FF1200D9CFE5FFE1CFD9FF90
:102FA00000C0E5FF01C0E5FF02C0E5FF03C0E5FF8B
:102FB00004C0E5FF05C0E5FF020EDBCF00F0030E05
:102FC000DBCF01F0040EDBCF02F00050020DF45015
:102FD000036EF3CF00F0390E0024046E040E0320BC
:102FE000056E04C0E9FF05C0EAFF01C0EEFF02C0A4
:102FF000EFFF590E0024046E040E0320056E04C07A
:10300000E9FF05C0EAFFEECF04F0EFCF05F0015075
:10301000045C016E02500558026ED30E0026040EA9
:10302000032200C0E9FF03C0EAFF01C0EEFF02C0B7
:10303000EFFFD88002AED89004E3021E016CD8B432
:10304000022A0250800F800F02E1030E015C02E2AF
:10305000016A026A0150021007E100C0E9FF03C0E3
:10306000EAFF000EEE6AEF6AE4CF05F0E4CF04F069
:10307000E4CF03F0E4CF02F0E4CF01F0E4CF00F0BE
:10308000E4CFD9FF1200D9CFE5FFE1CFD9FF00C0CF
:10309000E5FF01C0E5FF02C0E5FF03C0E5FF04C096
:1030A000E5FF05C0E5FF06C0E5FF020EDBCF00F03F
:1030B000030EDBCF01F0040EDBCF02F0050EDBCFF9
:1030C00003F0D88001AED890046A0436045007E0BB
:1030D000011C066E001C056E054A062A04D000C0BD
:1030E00005F001C006F0D88003AED89007E3031CBA
:1030F000016E021C006E004A012A04D002C000F0DA
:1031000003C001F00150E56E0050E56E0650E56E1B
:103110000550E56E4AEC1AF0006EF3CF01F0040E94
:10312000E12604500AE0011C036E001C026E024AF4
:10313000032A03C0F3FF025003D001C0F3FF005085
:10314000E4CF06F0E4CF05F0E4CF04F0E4CF03F0E1
:10315000E4CF02F0E4CF01F0E4CF00F0E4CFD9FFF8
:103160001200D9CFE5FFE1CFD9FF00C0E5FF01C0D4
:10317000E5FF02C0E5FF03C0E5FF04C0E5FF05C0B1
:10318000E5FF020EDBCF00F0030EDBCF01F0040EF3
:10319000DBCF02F0050EDBCF03F071C304F072C386
:1031A00005F00301713F01D0722B0350E56E04500E
:1031B000E56E12EC23F0E652E65271C304F072C3DE
:1031C00005F00301713F01D0722B0250056EE56ED0
:1031D0000450E56E12EC23F0E652E65271C304F09F
:1031E00072C305F00301713F01D0722B0150056ECF
:1031F000E56E0450E56E12EC23F0E652E65271C320
:1032000004F072C305F00301713F01D0722B00502E
:10321000E56E0450E56E12EC23F0E652E652E4CF80
:1032200005F0E4CF04F0E4CF03F0E4CF02F0E4CF04
:1032300001F0E4CF00F0E4CFD9FF1200D9CFE5FFD1
:10324000E1CFD9FF00C0E5FF01C0E5FF02C0E5FF07
:1032500003C0E5FF04C0E5FF05C0E5FF06C0E5FFCC
:10326000020EDBCF00F0030EDBCF01F0040EDBCF4C
:1032700002F00401375119E118EC14F0036EF3CF9A
:1032800004F0F4CF05F0E9CF06F003C0E5FF04C079
:10329000F4FF05C0F6FF06C0F7FF00C0E9FF01C05C
:1032A000F3FF025009EC25F01ED004013751010A4A
:1032B0001AE100C0E9FF01C0F3FF025036EC23F031
:1032C000006EF3CF01F0F4CF02F0E9CF03F003502A
:1032D000E56E0250E56E0150E56E0050E56EB1EC12
:1032E00018F0040EE126E4CF06F0E4CF05F0E4CFB9
:1032F00004F0E4CF03F0E4CF02F0E4CF01F0E4CF38
:1033000000F0E4CFD9FF1200D9CFE5FFE1CFD9FF1C
:1033100000C0E5FF01C0E5FF02C0E5FF03C0E5FF17
:1033200004C0E5FF05C0E5FF06C0E5FF020EDBCFE8
:1033300000F0030EDBCF01F00038E8441F0B026EF3
:10334000036A770E0226030E032202C0E9FF03C0C0
:10335000EAFFEFCF04F0070E0014056E010E066EB3
:10336000055005E0E86CD8900636010FFDE30650E5
:10337000041202C0E9FF03C0EAFF04C0EFFF3F0EE2
:103380000024026E036A030E032202C0E9FF03C099
:10339000EAFF01C0EFFF016A230E00260F0E012293
:1033A00000C0E9FF01C0EAFFFF0EEF68E4CF06F0BE
:1033B000E4CF05F0E4CF04F0E4CF03F0E4CF02F073
:1033C000E4CF01F0E4CF00F0E4CFD9FF1200D9CF71
:1033D000E5FFE1CFD9FF00C0E5FF01C0E5FF02C076
:1033E000E5FF03C0E5FF04C0E5FF05C0E5FF06C03B
:1033F000E5FF020EDBCF00F0030EDBCF01F0040E81
:10340000DBCF02F0050EDBCF03F0060EDBCF04F0BE
:10341000070EDBCF05F0080EDBCF06F0D88003AE39
:10342000D89015E306500A0A12E104C0E9FF05C06E
:10343000EAFF2D0EEF6E044A052A031E021E011E2E
:10344000006C05E1012A03E1022AD8B4032A0650E0
:10345000E56E0550E56E0450E56E0350E56E0250D2
:10346000E56E0150E56E0050E56EDDEC0EF0070EE6
:10347000E126E4CF06F0E4CF05F0E4CF04F0E4CF9A
:1034800003F0E4CF02F0E4CF01F0E4CF00F0E4CFAA
:10349000D9FF1200D9CFE5FFE1CFD9FF00C0E5FF8A
:1034A00001C0E5FF02C0E5FF03C0E5FF04C0E5FF82
:1034B00005C0E5FF06C0E5FF020EDBCF00F0030EFE
:1034C000DBCF01F0040EDBCF02F0050EDBCF03F003
:1034D000046A056A0350800BE844066E065011E149
:1034E0000250022603360350015C02E10250005CE8
:1034F00004E2D8900332023204D0052A05C004F059
:10350000E9D70350015C02E10250005C04E3025081
:10351000005E0350015AD8900332023204C005F015
:1035200004060550EEE101C0F3FF0050E4CF06F0C1
:10353000E4CF05F0E4CF04F0E4CF03F0E4CF02F0F1
:10354000E4CF01F0E4CF00F0E4CFD9FF1200D9CFEF
:10355000E5FFE1CFD9FF00C0E5FF01C0E5FF02C0F4
:10356000E5FF03C0E5FF020EDBCF00F0030EDBCF6B
:1035700001F0040EDBCF02F000C0E9FF01C0F3FF51
:1035800002501AEC25F0036E035029E0C6A610D0B5
:103590000350E56E1AEC24F0036EE652035002E08D
:1035A000FD0E1ED030EC21F0C5AC14D0FE0E18D0AC
:1035B0009E9600C0E9FF01C0F3FF02501AEC25F00F
:1035C000C96EC6889EA6FED7C7B404D0C7B002D0C5
:1035D000FE0E06D0002AD0E3014A022ACDD7E86ABF
:1035E000E4CF03F0E4CF02F0E4CF01F0E4CF00F049
:1035F000E4CFD9FF120000C0E5FF01C0E5FF02C023
:10360000E5FF03C0E5FF7DC300F0016A88C302F057
:10361000036A0250005E0350015AE56A800EE56EAF
:103620000150E56E0050E56E43EC18F0006E040E9C
:10363000E126000688C301F0430E6FEC20F0200E57
:103640006FEC20F0005020E0600E0124026E036A4F
:10365000000E032202C0E9FF03C0EAFFEFCF02F031
:10366000E56A0250E56E000EE56E4A0EE56EC80E84
:10367000E56E25EC1EF0050EE126012A0150800AB8
:1036800001E1016A0006DED7E4CF03F0E4CF02F0E7
:10369000E4CF01F0E4CF00F01200D9CFE5FFE1CF95
:1036A000D9FF00C0E5FF01C0E5FF02C0E5FF03C090
:1036B000E5FF020EDBCF00F0030EDBCF01F0040EBE
:1036C000DBCF02F0050EDBCF03F0035003E11D0E4C
:1036D000036E02D0530E036E03C0E5FF00C0E9FF86
:1036E00001C0F3FF0250A2EC25F0E56A2D0EE56E55
:1036F0000350E56E01EC21F0030EE126100EE56E9D
:103700002D0EE56E0350E56E01EC21F0030EE1266F
:10371000080EE56E2D0EE56E0350E56E01EC21F00E
:10372000030EE126E4CF03F0E4CF02F0E4CF01F092
:10373000E4CF00F0E4CFD9FF1200D9CFE5FFE1CF0D
:10374000D9FF00C0E5FF01C0E5FF02C0E5FF03C0EF
:10375000E5FF04C0E5FF020EDBCF00F0030EDBCF78
:1037600001F0040EDBCF02F00401375111E13BEC14
:1037700020F0036EF3CF04F003C0E5FF04C0F4FFB4
:1037800000C0E9FF01C0F3FF025074EC25F016D031
:1037900004013751010A12E100C0E9FF01C0F3FF43
:1037A0000250A4EC24F0006EF3CF01F00150E56E5E
:1037B0000050E56EE1EC1EF0E652E652E4CF04F074
:1037C000E4CF03F0E4CF02F0E4CF01F0E4CF00F067
:1037D000E4CFD9FF1200D9CFE5FFE1CFD9FF00C078
:1037E000E5FF01C0E5FF02C0E5FF03C0E5FF04C03F
:1037F000E5FF020EDBCF00F00038E8441F0B016E3E
:10380000026A750E0126030E022201C0E9FF02C002
:10381000EAFFEFCF01F0070E0016010E026E000E58
:10382000036E005006E0E86CD89002360336010FB4
:10383000FCE3046A01500216045003160250031000
:10384000D880E866D890026A02360250D880E866CE
:10385000D890026A02360250E4CF04F0E4CF03F0BD
:10386000E4CF02F0E4CF01F0E4CF00F0E4CFD9FFE1
:103870001200AE0EF66E4B0EF76E000EF86E0900DB
:10388000F550056E0900F550066E04E1056702D09B
:1038900086EF1CF00900F550006E0900F550016E2E
:1038A0000900F550026E09000900F550E96E0900A3
:1038B000F550EA6E090009000900F550036E090091
:1038C000F550046E09000900F6CF07F0F7CF08F0B5
:1038D000F8CF09F000C0F6FF01C0F7FF02C0F8FF03
:1038E000035002E1045007E00900F550EE6E0306B4
:1038F000F8E20406F9D707C0F6FF08C0F7FF09C0D1
:10390000F8FF050601E2060645EF1CF01200D9CFCC
:10391000E5FFE1CFD9FF00C0E5FF01C0E5FF02C030
:10392000E5FF03C0E5FF04C0E5FF05C0E5FF020EAB
:10393000DBCF00F00050010A22E1016A0150020DC4
:10394000F450036EF3CF02F0930E0224046E040EC3
:103950000320056E04C0E9FF05C0EAFFEE687F0E94
:10396000EF6EB30E0226040E032202C0E9FF03C06D
:10397000EAFFEE6AEF6A012A100E015CDFE300C085
:103980002AF3E4CF05F0E4CF04F0E4CF03F0E4CF72
:1039900002F0E4CF01F0E4CF00F0E4CFD9FF120051
:1039A000D9CFE5FFE1CFD9FF00C0E5FF01C0E5FFBA
:1039B00002C0E5FF03C0E5FF04C0E5FF020EDBCF58
:1039C00000F0030EDBCF01F0040EDBCF02F0036A40
:1039D00002C004F0020604501DE05CEC21F0046E0D
:1039E00000C0E9FF01C0EAFF04C0EFFF004A012A5E
:1039F00003C004F0C5A6ECD7A1A602D0E8680BD09E
:103A0000042A04C003F00250F5E0DBEC21F0C5B855
:103A1000FED7F0D70350E4CF04F0E4CF03F0E4CFB7
:103A200002F0E4CF01F0E4CF00F0E4CFD9FF1200C0
:103A300000C0E5FF01C0E5FF02C0E5FF03C0E5FFF0
:103A400004C0E5FF006A730E0024016E026A030ED3
:103A50000222750E0024036E046A030E042203C0C2
:103A6000E9FF04C0EAFF010EEF6E01C0E9FF02C0EA
:103A7000EAFFEF6E002A020E005CE5E3006A230E07
:103A80000024016E026A040E022201C0E9FF02C096
:103A9000EAFFEF68002A100E005CF1E3E4CF04F0C7
:103AA000E4CF03F0E4CF02F0E4CF01F0E4CF00F084
:103AB00012004320732025642025640A0000D9CF1A
:103AC000E5FFE1CFD9FF00C0E5FF01C0E5FF02C07F
:103AD000E5FF03C0E5FF04C0E5FF05C0E5FF020EFA
:103AE000DBCF00F0030EDBCF01F0040EDBCF02F0E2
:103AF000050EDBCF03F0060EDBCF04F0056A230EC4
:103B00000026040E0522800E015E070E0116013804
:103B1000F00B026E070E04160450022600C0E9FFE7
:103B200005C0EAFF02C0EFFFE4CF05F0E4CF04F0E8
:103B3000E4CF03F0E4CF02F0E4CF01F0E4CF00F0F3
:103B4000E4CFD9FF120000C0E5FF01C0E5FF02C0CD
:103B5000E5FFB1EC21F0006EB1EC21F0016E0050F8
:103B6000026ED00E0224006E0A0E005C05E30050C7
:103B7000026EF90E0224006E0150026ED00E022475
:103B8000016E0A0E015C05E30150026EF90E02247B
:103B9000016E080E005C12E2100E015CD8B00ED06F
:103BA0000038F00B0124006E95EC1FF0016E0150FF
:103BB00005E10050E56E02EC24F0E652E4CF02F09D
:103BC000E4CF01F0E4CF00F01200D9CFE5FFE1CF60
:103BD000D9FF00C0E5FF01C0E5FF02C0E5FF03C05B
:103BE000E5FF04C0E5FF020EDBCF00F00038E8443B
:103BF0001F0B016E026A770E0126030E022201C01E
:103C0000E9FF02C0EAFFEFCF03F0070E0016010E36
:103C1000046E005005E0E86CD8900436010FFDE317
:103C2000041C031601C0E9FF02C0EAFF03C0EFFF56
:103C3000E4CF04F0E4CF03F0E4CF02F0E4CF01F0EE
:103C4000E4CF00F0E4CFD9FF1200D9CFE5FFE1CFF8
:103C5000D9FF00C0E5FF01C0E5FF02C0E5FF020E8D
:103C6000D924006E000EDA20016E800E026E030E63
:103C70000026000E012202220250E56E0150E56E80
:103C80000050E56E040EDBCFE5FF030EDBCFE5FF52
:103C9000020EDBCFE5FF03016A51E56E6951E56E67
:103CA0006851E56E0EEC00F0006EF3CF01F0090EE6
:103CB000E12601C0F3FF0050E4CF02F0E4CF01F0B1
:103CC000E4CF00F0E4CFD9FF1200D9CFE5FFE1CF78
:103CD000D9FF00C0E5FF01C0E5FF02C0E5FF03C05A
:103CE000E5FF020EDBCF00F0030EDBCF01F0040E88
:103CF000DBCF02F0040137510DE178EC24F0036EC4
:103D000003C0E5FF00C0E9FF01C0F3FF0250A2ECD1
:103D100025F00FD004013751010A0BE100C0E9FF83
:103D200001C0F3FF02501AEC25F0E56EC7EC22F05B
:103D3000E652E4CF03F0E4CF02F0E4CF01F0E4CFA9
:103D400000F0E4CFD9FF120000C0E5FF01C0E5FF9D
:103D5000B1EC21F0006E4C0A08E1B1EC21F0300A20
:103D600002E08B8229D08B9227D00050450A24E1B3
:103D7000000EE56E100EE56EFE0EE56E25EC1EF0F3
:103D8000030EE126F9EC25F0006E00C001F00006FC
:103D900001500FE0B1EC21F0E56AE56E000EE56E32
:103DA000110EE56E000EE56E25EC1EF0050EE12607
:103DB000ECD70A0E6FEC20F0E4CF01F0E4CF00F076
:103DC0001200D9CFE5FFE1CFD9FF00C0E5FF01C068
:103DD000E5FF02C0E5FF03C0E5FF020EDBCF00F008
:103DE000030EDBCF01F071C302F072C303F00301D5
:103DF000713F01D0722B0150E56E0250E56E12EC5E
:103E000023F0E652E65271C302F072C303F00301DD
:103E1000713F01D0722B0050E56E0250E56E12EC3E
:103E200023F0E652E652E4CF03F0E4CF02F0E4CF11
:103E300001F0E4CF00F0E4CFD9FF1200D9CFE5FFC5
:103E4000E1CFD9FF00C0E5FF01C0E5FF02C0E5FFFB
:103E500003C0E5FF04C0E5FF020EDBCF00F023C383
:103E600001F0026A014A022A24C303F0046A0150E5
:103E7000031803E10250041801E001D00ED0000E37
:103E800003012325016E026A010E022201C0E9FF2F
:103E900002C0EAFF00C0EFFF232BE4CF04F0E4CF21
:103EA00003F0E4CF02F0E4CF01F0E4CF00F0E4CF80
:103EB000D9FF1200D9CFE5FFE1CFD9FF00C0E5FF60
:103EC00001C0E5FF02C0E5FF03C0E5FF020EDBCF46
:103ED00000F0016A88C302F0036A02500026035012
:103EE0000122E56A800EE56E0150E56E0050E56E38
:103EF00043EC18F0006EF3CF01F0040EE126600EE3
:103F00000026000E012200C0E9FF01C0EAFFEFCF4A
:103F100000F00050E4CF03F0E4CF02F0E4CF01F072
:103F2000E4CF00F0E4CFD9FF120000C0E5FF01C0EC
:103F3000E5FF02C0E5FF010E006EB1EC21F0016E5D
:103F400001C002F0015023E00050E56E4AEC25F07C
:103F5000016EE652015010E10A0E005C0BE20A0EFF
:103F6000006EE56E4AEC25F0016EE652015004E168
:103F7000E8680ED0E8680CD00150021802E0E8684A
:103F800007D0002A1B0E005CD8E3E86801D0E86A7D
:103F9000E4CF02F0E4CF01F0E4CF00F01200F3CF61
:103FA000E5FFF4CFE5FFE9CFE5FFEACFE5FFFACF84
:103FB000E5FFFBCFE5FF030121510F01356F030141
:103FC00022510F01366FD650336FD750346FF2A4A1
:103FD00011D00301213F01D0222BF2940301215182
:103FE0000F01356F030122510F01366FD650336F29
:103FF000D750346FE4CFFBFFE4CFFAFFE4CFEAFF02
:10400000E4CFE9FFE4CFF4FFE4CFF3FF110000C0F9
:10401000E5FF01C0E5FFB1EC21F00A0A27E1F9EC68
:1040200025F0016E020E015C21E3B1EC21F0006E7F
:1040300000A002D0898001D0899000A202D089829C
:1040400001D0899200A402D0898401D0899400A66D
:1040500002D0898801D0899800A802D0898601D031
:10406000899600AA02D0898A01D0899AE4CF01F00A
:10407000E4CF00F0120000C0E5FF01C0E5FF02C080
:10408000E5FF03C0E5FF71C300F072C301F0030157
:10409000713F01D0722B0050E56E4AEC25F0E652DC
:1040A000036E026A71C300F072C301F00301713F35
:1040B00001D0722B0050E56E4AEC25F0E652016A01
:1040C00002120150031203C0F3FF0250E4CF03F0C9
:1040D000E4CF02F0E4CF01F0E4CF00F0120000C022
:1040E000E5FF01C0E5FF02C0E5FF006E000E030121
:1040F0002825016E026A0F0E022201C0E9FF02C0EC
:10410000EAFF00C0EFFF220E285D01E2282B0050DD
:104110000A0A0FE103012851E56E800EE56E0F0ECD
:10412000E56E000EE56E51EC17F0040EE12603017A
:10413000286BE4CF02F0E4CF01F0E4CF00F01200EE
:10414000D9CFE5FFE1CFD9FF00C0E5FF01C0E5FF12
:1041500002C0E5FF020EDBCF00F0030EDBCF01F063
:10416000A0EC22F00044FE0B026E0150D880E866FD
:10417000D890006A00360050D880E866D890006A6F
:104180000036005002120250E56E1AEC24F0E6529E
:10419000E4CF02F0E4CF01F0E4CF00F0E4CFD9FFA8
:1041A00012000301236B0301246B030125698B803B
:1041B0009490B06A3F0EAF6EB886AC8AAC84AC8C7B
:1041C000AC90AB8CAB8E03017F6B0301796B030169
:1041D0007C6B03017D6B03017E6B000EE56A4AEC8C
:1041E00025F00301276FE6529F989F9A010E030165
:1041F000266F0301686B696B2F0E6A6F58EC25F010
:104200001200D9CFE5FFE1CFD9FF00C0E5FF01C023
:10421000E5FF02C0E5FF020EDBCF00F0030EDBCFAF
:1042200001F0040EDBCF02F0E56A0050E56EA0EC71
:1042300020F0E652E6520150E56E1AEC24F0E65208
:104240000250E56E1AEC24F0E65279EC22F0E4CF4D
:1042500002F0E4CF01F0E4CF00F0E4CFD9FF120088
:1042600000C0E5FF01C0E5FF02C0E5FF03C0E5FFB8
:10427000E80E006E030E016E0050FF0F026EFF0E7F
:104280000120036E02C000F003C001F002500310D1
:104290000AE01F0EC514026E036AC7B4032A035056
:1042A00002120250E9E1E4CF03F0E4CF02F0E4CFE0
:1042B00001F0E4CF00F0120000C0E5FF01C0E5FF0F
:1042C00002C0E5FF03C0E5FFE80E006E030E016EBD
:1042D00030EC21F0C5860050FF0F026EFF0E01206A
:1042E000036E02C000F003C001F00250031005E0AD
:1042F000E4EC25F0026E0250EEE0C950E4CF03F08A
:10430000E4CF02F0E4CF01F0E4CF00F012000301AB
:10431000215104018C6F0301225104018D6FD6508D
:104320008A6FD7508B6F8C510301211905E104016D
:104330008D51030122190CE00301215104018C6FFE
:104340000301225104018D6FD6508A6FD7508B6FB5
:104350008DC4E9FF8CC4F4FF8BC4F3FF04018A51C0
:10436000120000C0E5FF01C0E5FF03017D5103011C
:10437000861905E003017D5103017C1902E1E86A19
:1043800015D07DC300F003017D2B016A600E00266D
:10439000000E012200C0E9FF01C0EAFFEFCF00F0EC
:1043A0007D51800A02E103017D6B0050E4CF01F0F2
:1043B000E4CF00F0120000C0E5FF01C0E5FF02C03D
:1043C000E5FF03C0E5FFE80E006E030E016E30EC62
:1043D00021F09E96C59AC5880050FF0F026EFF0E11
:1043E0000120036E02C000F003C001F00250031070
:1043F00002E09EA6F1D7E4CF03F0E4CF02F0E4CFD1
:1044000001F0E4CF00F0120000C0E5FFF3EC25F06E
:104410000401896B806B8983006A89B3002A00508C
:10442000010BE844F46E8051FD0BF410806FD58EC3
:10443000D59CD59AD588D596D594D582D580F28A43
:10444000F184D08EF28EF28CBA80FF0EBB68BA84F3
:10445000E4CF00F01200D9CFE5FFE1CFD9FF00C0D3
:10446000E5FF01C0E5FF020EDBCF00F00050020DBA
:10447000F450016EF3CF00F0D30E0026040E01229B
:1044800000C0E9FF01C0EAFFEECF00F0EFCF01F07E
:1044900001C0F3FF0050E4CF01F0E4CF00F0E4CF1F
:1044A000D9FF1200D9CFE5FFE1CFD9FF00C0E5FF6A
:1044B00001C0E5FF020EDBCF00F00050020DF4500A
:1044C000016EF3CF00F0E00E0026000E012200C0C6
:1044D000E9FF01C0EAFFEECF00F0EFCF01F001C02D
:1044E000F3FF0050E4CF01F0E4CF00F0E4CFD9FFB8
:1044F000120000C0E5FF01C0E5FF02C0E5FF03C0F8
:10450000E5FFE80E006E030E016E30EC21F0C5846D
:104510000050FF0F026EFF0E0120036E02C000F07C
:1045200003C001F00250031002E0C5B4F1D7E4CF9C
:1045300003F0E4CF02F0E4CF01F0E4CF00F012008A
:1045400000C0E5FF01C0E5FF02C0E5FF03C0E5FFD5
:10455000E80E006E030E016E30EC21F0C5800050B5
:10456000FF0F026EFF0E0120036E02C000F003C0B9
:1045700001F00250031002E0C5B0F1D7E4CF03F020
:10458000E4CF02F0E4CF01F0E4CF00F01200D9CF85
:10459000E5FFE1CFD9FF00C0E5FF01C0E5FF02C0A4
:1045A000E5FF020EDBCF00F071C301F072C302F031
:1045B0000301713F01D0722B0050E56E0150E56E92
:1045C00012EC23F0E652E652E4CF02F0E4CF01F021
:1045D000E4CF00F0E4CFD9FF1200D8CFE5FFE0CF61
:1045E000E5FFE56EF3CFE5FFF4CFE5FFE9CFE5FFAB
:1045F000EACFE5FFFACFE5FFFBCFE5FFF4EC0CF0E7
:10460000E4CFFBFFE4CFFAFFE4CFEAFFE4CFE9FF1A
:10461000E4CFF4FFE4CFF3FFE450E4CFE0FFE4CFD6
:10462000D8FF1000D9CFE5FFE1CFD9FF00C0E5FFEB
:10463000020EDBCF00F0030EDBCFA8FF00C0A9FF06
:10464000A69EA69CA684F29EF29C550EA76EAA0E6C
:10465000A76EA682A6A202D00000FCD7A694F28E76
:10466000F28CE4CF00F0E4CFD9FF1200E8AE0AD01C
:10467000F3CFEAFFEE50EECFF3FFEECFF4FFEECF35
:10468000E9FF1200E8BC08EF26F0E9CFF6FFF3CF10
:10469000F7FFF86E0900F5500900F5CFF3FF0900A8
:1046A000F5CFF4FF0900F5CFE9FF120000C0E5FFE8
:1046B00001C0E5FF030123510301241902E1E86A67
:1046C0000FD0000E03012425006E016A010E0122A5
:1046D00000C0E9FF01C0EAFFEFCF00F0242B00503B
:1046E000E4CF01F0E4CF00F01200F2CFEAFFF29E37
:1046F000A69EA69CA684E9CFA9FFF3CFAAFFE4CF8C
:10470000A8FFB7EC25F0F4CFA8FFB7EC25F0F6CF63
:10471000A8FFB7EC25F0F7CFA8FFB7EC25F0A694DB
:10472000EABEF28E1200D9CFE5FFE1CFD9FF00C07B
:10473000E5FF01C0E5FF020EDBCF00F0016A230EAA
:104740000026040E012200C0E9FF01C0EAFFFF0EAF
:10475000EF68E4CF01F0E4CF00F0E4CFD9FF12001E
:10476000F2CFF6FFF29EA69EA69CE9CFA9FFF3CF5B
:10477000AAFFA680A850A94AAA2AA680A8CFF3FF1C
:10478000A94AAA2AA680A8CFF4FFA94AAA2AA680E5
:10479000A8CFEAFFF6BEF28E1200E8AE08D0F3CF43
:1047A000EAFFEE50EECFF3FFEECFF4FF1200E8BCCD
:1047B00010EF26F0E9CFF6FFF3CFF7FFF86E090010
:1047C000F5500900F5CFF3FF0900F5CFF4FF120013
:1047D000F2CFEAFFF29EA69EA69CA684E9CFA9FF8F
:1047E000F3CFAAFFE4CFA8FFB7EC25F0F4CFA8FFE2
:1047F000B7EC25F0F6CFA8FFB7EC25F0A694EABEFB
:10480000F28E1200D9CFE5FFE1CFD9FF00C0E5FF5E
:10481000020EDBCF00F000C027F30050E56E000E63
:10482000E56A12EC23F0E652E652E4CF00F0E4CF62
:10483000D9FF1200D9CFE5FFE1CFD9FF00C0E5FFD6
:10484000020EDBCF00F0C69E00C0C9FFC6AE02D08C
:10485000E86803D030EC21F0E86AE4CF00F0E4CF60
:10486000D9FF1200F2CFF6FFF29EA69EA69CE9CFDA
:10487000A9FFF3CFAAFFA680A850A94AAA2AA6801A
:10488000A8CFF3FFA94AAA2AA680A8CFF4FFF6BEB4
:10489000F28E120000C0E5FF01C0E5FF600E0301CB
:1048A0007D25006E016A000E012200C0E9FF01C0F3
:1048B000EAFFEFCF00F00050E4CF01F0E4CF00F0CA
:1048C0001200D9CFE5FFE1CFD9FF00C0E5FF020E0E
:1048D000DBCF00F0610E005C05E37B0E005C02E2C2
:1048E000010E01D0E86AE4CF00F0E4CFD9FF120056
:1048F00000C0E5FF01C0E5FF71C300F072C301F025
:104900000301713F01D0722B0050E56E4AEC25F097
:10491000E652E4CF01F0E4CF00F01200D9CFE5FF7A
:10492000E1CFD9FF00C0E5FF020EDBCF00F000C0F1
:1049300026F3005004E158EC25F09D9A9D98E4CFB1
:1049400000F0E4CFD9FF1200E8AE06D0F3CFEAFFC3
:10495000EE50EECFF3FF1200E8BC06EF26F0E9CFF1
:10496000F6FFF3CFF7FFF86E0900F5500900F5CF19
:10497000F3FF1200F2CFEAFFF29EA69EA69CA68449
:10498000E9CFA9FFF3CFAAFFE4CFA8FFB7EC25F04A
:10499000F4CFA8FFB7EC25F0A694EABEF28E120081
:1049A00012EEFFF022EEFFF0F86AA68EA69CE968F0
:1049B0000E0EEA6E0068000EED6A0050FDE139EC63
:1049C0001CF006EC00F0FFD7F2CFF6FFF29EA69E99
:1049D000A69CE9CFA9FFF3CFAAFFA680A850A94AB9
:1049E000AA2AA680A8CFF3FFF6BEF28E1200F2CF5D
:1049F000EAFFF29EA69EA69CA684E9CFA9FFF3CF6C
:104A0000AAFFE4CFA8FFB7EC25F0A694EABEF28E89
:104A10001200E8AE0BD0F3CFEAFFE4CFEEFFF4CF05
:104A2000EEFFF6CFEEFFF7CFEEFF1200E8BC0AEF85
:104A300026F01200E8AE04D0F3CFEAFFEE501200E9
:104A4000E8BC04EF26F0E9CFF6FFF3CFF7FFF86EEE
:104A50000900F55012000000000000FF00000000F7
:104A600000070002000000420000000000000000FB
:104A7000000000000000E8AE09D0F3CFEAFFE4CF69
:104A8000EEFFF4CFEEFFF6CFEEFF1200E8BC12EF20
:104A900026F01200D9CFE5FFE1CFD9FF020EDBCF20
:104AA000A9FFA69CA69EA680A850E4CFD9FF12001D
:104AB000ACA2FED78B80AE500000AE50AB98AB8856
:104AC000AB869D8A9D98120025642000F2CFF6FFE8
:104AD000F29EA69EA69CE9CFA9FFF3CFAAFFA680CF
:104AE000A850F6BEF28E1200E8AE07D0F3CFEAFF70
:104AF000E4CFEEFFF4CFEEFF1200E8BC0EEF26F09D
:104B00001200700ED36E9B8CFF0E926893689468AF
:104B10009668626AF19E120000C0E5FF95EC1FF0F6
:104B2000006E005001E1FF00E4CF00F012000F0121
:104B3000456B900E0F01446F030E0F01436F0F0181
:104B4000458F1200E8AE05D0F3CFEAFFE4CFEEFFC9
:104B50001200E8BC0CEF26F01200D9CFE5FFE1CF40
:104B6000D9FF020EDBCF2DF3E4CFD9FF1200550E93
:104B7000A76EAA0EA76EA682A6B2FED7A94AAA2A37
:104B8000010E0401376F1C0E0301716F726B12006E
:104B900030EC21F09E96C58AC5889EA6FED71200ED
:104BA0000401376B1C0E0301716F726B1200010060
:104BB000564A0000200300001F00000030EC21F0E6
:104BC000C582C5B2FED71200C7A002D0010E01D027
:104BD000E86A120004EC22F0D1EC20F01200ACA242
:104BE000FED7AD6E120081EC25F0120003017D515D
:104BF0001200030187511200030126511200E8CF71
:104C00007FFF1200C96E120066EF25F0E4EF24F07A
:104C1000B0EF23F075EF23F0F7EF24F0BAEF24F0B4
:084C200032EF24F0E8EF23F06D
:00000001FF
